{
  "contractName": "AshlyNFTMarketplaceUpgradable",
  "abi": [
    {
      "anonymous": false,
      "inputs": [
        {
          "indexed": true,
          "internalType": "address",
          "name": "from",
          "type": "address"
        },
        {
          "indexed": true,
          "internalType": "address",
          "name": "to",
          "type": "address"
        },
        {
          "indexed": true,
          "internalType": "uint256",
          "name": "tokenId",
          "type": "uint256"
        },
        {
          "indexed": false,
          "internalType": "uint256",
          "name": "price",
          "type": "uint256"
        }
      ],
      "name": "AuctionSettlement",
      "type": "event"
    },
    {
      "anonymous": false,
      "inputs": [
        {
          "indexed": true,
          "internalType": "uint256",
          "name": "tokenId",
          "type": "uint256"
        },
        {
          "indexed": true,
          "internalType": "address",
          "name": "currentBidder",
          "type": "address"
        },
        {
          "indexed": false,
          "internalType": "uint256",
          "name": "biddingAmount",
          "type": "uint256"
        }
      ],
      "name": "Bid",
      "type": "event"
    },
    {
      "anonymous": false,
      "inputs": [
        {
          "indexed": true,
          "internalType": "address",
          "name": "from",
          "type": "address"
        },
        {
          "indexed": true,
          "internalType": "address",
          "name": "to",
          "type": "address"
        },
        {
          "indexed": true,
          "internalType": "uint256",
          "name": "tokenId",
          "type": "uint256"
        },
        {
          "indexed": false,
          "internalType": "uint256",
          "name": "price",
          "type": "uint256"
        }
      ],
      "name": "Buy",
      "type": "event"
    },
    {
      "anonymous": false,
      "inputs": [
        {
          "indexed": true,
          "internalType": "uint256",
          "name": "tokenId",
          "type": "uint256"
        }
      ],
      "name": "Cancel",
      "type": "event"
    },
    {
      "anonymous": false,
      "inputs": [
        {
          "indexed": true,
          "internalType": "address",
          "name": "previousOwner",
          "type": "address"
        },
        {
          "indexed": true,
          "internalType": "address",
          "name": "newOwner",
          "type": "address"
        }
      ],
      "name": "OwnershipTransferred",
      "type": "event"
    },
    {
      "anonymous": false,
      "inputs": [
        {
          "indexed": true,
          "internalType": "bytes32",
          "name": "role",
          "type": "bytes32"
        },
        {
          "indexed": true,
          "internalType": "bytes32",
          "name": "previousAdminRole",
          "type": "bytes32"
        },
        {
          "indexed": true,
          "internalType": "bytes32",
          "name": "newAdminRole",
          "type": "bytes32"
        }
      ],
      "name": "RoleAdminChanged",
      "type": "event"
    },
    {
      "anonymous": false,
      "inputs": [
        {
          "indexed": true,
          "internalType": "bytes32",
          "name": "role",
          "type": "bytes32"
        },
        {
          "indexed": true,
          "internalType": "address",
          "name": "account",
          "type": "address"
        },
        {
          "indexed": true,
          "internalType": "address",
          "name": "sender",
          "type": "address"
        }
      ],
      "name": "RoleGranted",
      "type": "event"
    },
    {
      "anonymous": false,
      "inputs": [
        {
          "indexed": true,
          "internalType": "bytes32",
          "name": "role",
          "type": "bytes32"
        },
        {
          "indexed": true,
          "internalType": "address",
          "name": "account",
          "type": "address"
        },
        {
          "indexed": true,
          "internalType": "address",
          "name": "sender",
          "type": "address"
        }
      ],
      "name": "RoleRevoked",
      "type": "event"
    },
    {
      "anonymous": false,
      "inputs": [
        {
          "indexed": true,
          "internalType": "address",
          "name": "tokenOwner",
          "type": "address"
        },
        {
          "indexed": true,
          "internalType": "uint256",
          "name": "tokenId",
          "type": "uint256"
        },
        {
          "indexed": false,
          "internalType": "uint256",
          "name": "basePrice",
          "type": "uint256"
        }
      ],
      "name": "StartAuction",
      "type": "event"
    },
    {
      "anonymous": false,
      "inputs": [
        {
          "indexed": true,
          "internalType": "address",
          "name": "tokenOwner",
          "type": "address"
        },
        {
          "indexed": true,
          "internalType": "uint256",
          "name": "tokenId",
          "type": "uint256"
        },
        {
          "indexed": false,
          "internalType": "uint256",
          "name": "basePrice",
          "type": "uint256"
        }
      ],
      "name": "StartSale",
      "type": "event"
    },
    {
      "inputs": [],
      "name": "ADMIN_ROLE",
      "outputs": [
        {
          "internalType": "bytes32",
          "name": "",
          "type": "bytes32"
        }
      ],
      "stateMutability": "view",
      "type": "function",
      "constant": true
    },
    {
      "inputs": [],
      "name": "DEFAULT_ADMIN_ROLE",
      "outputs": [
        {
          "internalType": "bytes32",
          "name": "",
          "type": "bytes32"
        }
      ],
      "stateMutability": "view",
      "type": "function",
      "constant": true
    },
    {
      "inputs": [],
      "name": "MINTER_ROLE",
      "outputs": [
        {
          "internalType": "bytes32",
          "name": "",
          "type": "bytes32"
        }
      ],
      "stateMutability": "view",
      "type": "function",
      "constant": true
    },
    {
      "inputs": [],
      "name": "PAUSER_ROLE",
      "outputs": [
        {
          "internalType": "bytes32",
          "name": "",
          "type": "bytes32"
        }
      ],
      "stateMutability": "view",
      "type": "function",
      "constant": true
    },
    {
      "inputs": [
        {
          "internalType": "bytes32",
          "name": "role",
          "type": "bytes32"
        }
      ],
      "name": "getRoleAdmin",
      "outputs": [
        {
          "internalType": "bytes32",
          "name": "",
          "type": "bytes32"
        }
      ],
      "stateMutability": "view",
      "type": "function",
      "constant": true
    },
    {
      "inputs": [
        {
          "internalType": "bytes32",
          "name": "role",
          "type": "bytes32"
        },
        {
          "internalType": "uint256",
          "name": "index",
          "type": "uint256"
        }
      ],
      "name": "getRoleMember",
      "outputs": [
        {
          "internalType": "address",
          "name": "",
          "type": "address"
        }
      ],
      "stateMutability": "view",
      "type": "function",
      "constant": true
    },
    {
      "inputs": [
        {
          "internalType": "bytes32",
          "name": "role",
          "type": "bytes32"
        }
      ],
      "name": "getRoleMemberCount",
      "outputs": [
        {
          "internalType": "uint256",
          "name": "",
          "type": "uint256"
        }
      ],
      "stateMutability": "view",
      "type": "function",
      "constant": true
    },
    {
      "inputs": [
        {
          "internalType": "bytes32",
          "name": "role",
          "type": "bytes32"
        },
        {
          "internalType": "address",
          "name": "account",
          "type": "address"
        }
      ],
      "name": "hasRole",
      "outputs": [
        {
          "internalType": "bool",
          "name": "",
          "type": "bool"
        }
      ],
      "stateMutability": "view",
      "type": "function",
      "constant": true
    },
    {
      "inputs": [],
      "name": "owner",
      "outputs": [
        {
          "internalType": "address",
          "name": "",
          "type": "address"
        }
      ],
      "stateMutability": "view",
      "type": "function",
      "constant": true
    },
    {
      "inputs": [],
      "name": "renounceOwnership",
      "outputs": [],
      "stateMutability": "nonpayable",
      "type": "function"
    },
    {
      "inputs": [
        {
          "internalType": "bytes32",
          "name": "role",
          "type": "bytes32"
        },
        {
          "internalType": "address",
          "name": "account",
          "type": "address"
        }
      ],
      "name": "renounceRole",
      "outputs": [],
      "stateMutability": "nonpayable",
      "type": "function"
    },
    {
      "inputs": [
        {
          "internalType": "bytes32",
          "name": "role",
          "type": "bytes32"
        },
        {
          "internalType": "address",
          "name": "account",
          "type": "address"
        }
      ],
      "name": "revokeRole",
      "outputs": [],
      "stateMutability": "nonpayable",
      "type": "function"
    },
    {
      "inputs": [
        {
          "internalType": "bytes4",
          "name": "interfaceId",
          "type": "bytes4"
        }
      ],
      "name": "supportsInterface",
      "outputs": [
        {
          "internalType": "bool",
          "name": "",
          "type": "bool"
        }
      ],
      "stateMutability": "view",
      "type": "function",
      "constant": true
    },
    {
      "inputs": [
        {
          "internalType": "address",
          "name": "rootAdmin",
          "type": "address"
        },
        {
          "components": [
            {
              "internalType": "address payable",
              "name": "account",
              "type": "address"
            },
            {
              "internalType": "uint256",
              "name": "value",
              "type": "uint256"
            }
          ],
          "internalType": "struct libERC721Fee.Part",
          "name": "_maintainer",
          "type": "tuple"
        },
        {
          "internalType": "uint16",
          "name": "_maintainerInitialFee",
          "type": "uint16"
        },
        {
          "internalType": "contract NFTMarketplaceUpgradable",
          "name": "_tokenerc721",
          "type": "address"
        }
      ],
      "name": "initialize",
      "outputs": [],
      "stateMutability": "nonpayable",
      "type": "function"
    },
    {
      "inputs": [
        {
          "internalType": "address",
          "name": "newOwner",
          "type": "address"
        }
      ],
      "name": "transferOwnership",
      "outputs": [],
      "stateMutability": "nonpayable",
      "type": "function"
    },
    {
      "inputs": [
        {
          "internalType": "bytes32",
          "name": "role",
          "type": "bytes32"
        },
        {
          "internalType": "address",
          "name": "account",
          "type": "address"
        }
      ],
      "name": "grantRole",
      "outputs": [],
      "stateMutability": "nonpayable",
      "type": "function"
    },
    {
      "inputs": [
        {
          "internalType": "address",
          "name": "newAdmin",
          "type": "address"
        }
      ],
      "name": "changeRootAdmin",
      "outputs": [],
      "stateMutability": "nonpayable",
      "type": "function"
    },
    {
      "inputs": [
        {
          "internalType": "address",
          "name": "account",
          "type": "address"
        },
        {
          "internalType": "bytes32",
          "name": "role",
          "type": "bytes32"
        }
      ],
      "name": "addMinter",
      "outputs": [],
      "stateMutability": "nonpayable",
      "type": "function"
    },
    {
      "inputs": [
        {
          "internalType": "uint256",
          "name": "tokenId",
          "type": "uint256"
        }
      ],
      "name": "getCurrentBid",
      "outputs": [
        {
          "components": [
            {
              "internalType": "address payable",
              "name": "account",
              "type": "address"
            },
            {
              "internalType": "uint256",
              "name": "value",
              "type": "uint256"
            }
          ],
          "internalType": "struct libERC721Fee.Part",
          "name": "",
          "type": "tuple"
        }
      ],
      "stateMutability": "view",
      "type": "function",
      "constant": true
    },
    {
      "inputs": [
        {
          "internalType": "uint256",
          "name": "tokenId",
          "type": "uint256"
        }
      ],
      "name": "cancel",
      "outputs": [],
      "stateMutability": "nonpayable",
      "type": "function"
    },
    {
      "inputs": [],
      "name": "gettNftAddress",
      "outputs": [
        {
          "internalType": "contract NFTMarketplaceUpgradable",
          "name": "",
          "type": "address"
        }
      ],
      "stateMutability": "view",
      "type": "function",
      "constant": true
    },
    {
      "inputs": [
        {
          "components": [
            {
              "internalType": "address payable",
              "name": "account",
              "type": "address"
            },
            {
              "internalType": "uint256",
              "name": "value",
              "type": "uint256"
            }
          ],
          "internalType": "struct libERC721Fee.Part",
          "name": "_maintainer",
          "type": "tuple"
        },
        {
          "internalType": "uint16",
          "name": "_maintainerInitialFee",
          "type": "uint16"
        }
      ],
      "name": "updateMaintainer",
      "outputs": [],
      "stateMutability": "nonpayable",
      "type": "function"
    },
    {
      "inputs": [
        {
          "internalType": "uint16",
          "name": "_value",
          "type": "uint16"
        }
      ],
      "name": "updatemaintainerInitialFee",
      "outputs": [],
      "stateMutability": "nonpayable",
      "type": "function"
    },
    {
      "inputs": [
        {
          "internalType": "uint256",
          "name": "_value",
          "type": "uint256"
        }
      ],
      "name": "updateMaintainerValue",
      "outputs": [],
      "stateMutability": "nonpayable",
      "type": "function"
    },
    {
      "inputs": [],
      "name": "getMaintainer",
      "outputs": [
        {
          "internalType": "address",
          "name": "",
          "type": "address"
        }
      ],
      "stateMutability": "view",
      "type": "function",
      "constant": true
    },
    {
      "inputs": [],
      "name": "getMaintainerValue",
      "outputs": [
        {
          "internalType": "uint256",
          "name": "",
          "type": "uint256"
        }
      ],
      "stateMutability": "view",
      "type": "function",
      "constant": true
    },
    {
      "inputs": [],
      "name": "getMaintainerInitialFee",
      "outputs": [
        {
          "internalType": "uint16",
          "name": "",
          "type": "uint16"
        }
      ],
      "stateMutability": "view",
      "type": "function",
      "constant": true
    },
    {
      "inputs": [
        {
          "internalType": "uint256",
          "name": "collectableId",
          "type": "uint256"
        }
      ],
      "name": "getAuctionDetails",
      "outputs": [
        {
          "internalType": "address",
          "name": "",
          "type": "address"
        },
        {
          "internalType": "uint256",
          "name": "",
          "type": "uint256"
        },
        {
          "internalType": "uint256",
          "name": "",
          "type": "uint256"
        },
        {
          "internalType": "address",
          "name": "",
          "type": "address"
        }
      ],
      "stateMutability": "view",
      "type": "function",
      "constant": true
    },
    {
      "inputs": [
        {
          "components": [
            {
              "internalType": "address payable",
              "name": "account",
              "type": "address"
            },
            {
              "internalType": "uint256",
              "name": "value",
              "type": "uint256"
            }
          ],
          "internalType": "struct libERC721Fee.Part[]",
          "name": "creators",
          "type": "tuple[]"
        },
        {
          "internalType": "address",
          "name": "receiver",
          "type": "address"
        },
        {
          "internalType": "uint256",
          "name": "collectableId",
          "type": "uint256"
        },
        {
          "internalType": "string",
          "name": "IPFS_hash",
          "type": "string"
        }
      ],
      "name": "mintAndTransfer",
      "outputs": [],
      "stateMutability": "nonpayable",
      "type": "function"
    },
    {
      "inputs": [
        {
          "internalType": "uint256",
          "name": "collectableId",
          "type": "uint256"
        },
        {
          "internalType": "address",
          "name": "receiver",
          "type": "address"
        }
      ],
      "name": "transferAsset",
      "outputs": [],
      "stateMutability": "nonpayable",
      "type": "function"
    },
    {
      "inputs": [
        {
          "internalType": "uint256",
          "name": "startingPrice",
          "type": "uint256"
        },
        {
          "internalType": "uint256",
          "name": "salePrice",
          "type": "uint256"
        },
        {
          "components": [
            {
              "internalType": "address payable",
              "name": "account",
              "type": "address"
            },
            {
              "internalType": "uint256",
              "name": "value",
              "type": "uint256"
            }
          ],
          "internalType": "struct libERC721Fee.Part[]",
          "name": "creators",
          "type": "tuple[]"
        },
        {
          "internalType": "address payable",
          "name": "collectableOwner",
          "type": "address"
        },
        {
          "internalType": "uint256",
          "name": "collectableId",
          "type": "uint256"
        },
        {
          "internalType": "string",
          "name": "IPFS_hash",
          "type": "string"
        }
      ],
      "name": "mintAndStartAuction",
      "outputs": [],
      "stateMutability": "nonpayable",
      "type": "function"
    },
    {
      "inputs": [
        {
          "internalType": "uint256",
          "name": "salePrice",
          "type": "uint256"
        },
        {
          "components": [
            {
              "internalType": "address payable",
              "name": "account",
              "type": "address"
            },
            {
              "internalType": "uint256",
              "name": "value",
              "type": "uint256"
            }
          ],
          "internalType": "struct libERC721Fee.Part[]",
          "name": "creators",
          "type": "tuple[]"
        },
        {
          "internalType": "address payable",
          "name": "collectableOwner",
          "type": "address"
        },
        {
          "internalType": "uint256",
          "name": "collectableId",
          "type": "uint256"
        },
        {
          "internalType": "string",
          "name": "IPFS_hash",
          "type": "string"
        }
      ],
      "name": "mintAndStartSale",
      "outputs": [],
      "stateMutability": "nonpayable",
      "type": "function"
    },
    {
      "inputs": [
        {
          "internalType": "address",
          "name": "",
          "type": "address"
        },
        {
          "internalType": "address",
          "name": "_from",
          "type": "address"
        },
        {
          "internalType": "uint256",
          "name": "_tokenId",
          "type": "uint256"
        },
        {
          "internalType": "bytes",
          "name": "_data",
          "type": "bytes"
        }
      ],
      "name": "onERC721Received",
      "outputs": [
        {
          "internalType": "bytes4",
          "name": "",
          "type": "bytes4"
        }
      ],
      "stateMutability": "nonpayable",
      "type": "function"
    },
    {
      "inputs": [
        {
          "internalType": "uint256",
          "name": "collectableId",
          "type": "uint256"
        }
      ],
      "name": "bid",
      "outputs": [],
      "stateMutability": "payable",
      "type": "function",
      "payable": true
    },
    {
      "inputs": [
        {
          "internalType": "uint256",
          "name": "collectableId",
          "type": "uint256"
        }
      ],
      "name": "auctionSettlement",
      "outputs": [],
      "stateMutability": "payable",
      "type": "function",
      "payable": true
    },
    {
      "inputs": [
        {
          "internalType": "address",
          "name": "receiver",
          "type": "address"
        },
        {
          "internalType": "uint256",
          "name": "collectableId",
          "type": "uint256"
        },
        {
          "internalType": "uint256",
          "name": "purchaseType",
          "type": "uint256"
        }
      ],
      "name": "buy",
      "outputs": [],
      "stateMutability": "payable",
      "type": "function",
      "payable": true
    }
  ],
  "bytecode": "0x608060405234801561001057600080fd5b50613e13806100206000396000f3fe6080604052600436106102135760003560e060020a9004806391d148541161011c578063d547741f116100a4578063f20e5e3511610073578063f20e5e3514610688578063f2fde38b14610714578063f58d713514610734578063f6df827814610758578063fa62ee8d1461076e57610213565b8063d547741f146105a4578063da4e364f146105c4578063e295bf7014610634578063e63ab1e91461065457610213565b8063b6d05a38116100eb578063b6d05a381461050f578063bca101301461052f578063ca15c87314610542578063cf6a649f14610562578063d53913931461058257610213565b806391d14854146104a7578063a217fddf146104c7578063a59ac6dd146104dc578063a6807a6b146104ef57610213565b80634b0a72bc1161019f578063715018a61161016e578063715018a61461040c57806375b238fc1461042157806378553666146104435780638da5cb5b146104695780639010d07c1461048757610213565b80634b0a72bc1461037957806360a9c191146103ac57806366eb463f146103cc578063714fbb8d146103ec57610213565b8063323b61d9116101e6578063323b61d9146102e657806336568abe146103065780633b21f8d51461032657806340e58ee514610346578063454a2ab31461036657610213565b806301ffc9a714610218578063150b7a021461024d578063248a9ca3146102865780632f2ff15d146102c4575b600080fd5b34801561022457600080fd5b50610238610233366004613758565b61078e565b60405190151581526020015b60405180910390f35b34801561025957600080fd5b5061026d610268366004613549565b6107d4565b604051600160e060020a03199091168152602001610244565b34801561029257600080fd5b506102b66102a13660046136f0565b60009081526065602052604090206001015490565b604051908152602001610244565b3480156102d057600080fd5b506102e46102df366004613708565b61084f565b005b3480156102f257600080fd5b506102e46103013660046137cd565b610905565b34801561031257600080fd5b506102e4610321366004613708565b610bd3565b34801561033257600080fd5b506102e46103413660046135c6565b610c5e565b34801561035257600080fd5b506102e46103613660046136f0565b610cca565b6102e46103743660046136f0565b610f34565b34801561038557600080fd5b5061013154600160a060020a03165b604051600160a060020a039091168152602001610244565b3480156103b857600080fd5b506102e46103c73660046136f0565b611078565b3480156103d857600080fd5b506102e46103e7366004613511565b6110d3565b3480156103f857600080fd5b506102e461040736600461367d565b611120565b34801561041857600080fd5b506102e4611401565b34801561042d57600080fd5b506102b6600080516020613dbe83398151915281565b34801561044f57600080fd5b5061039461013354620100009004600160a060020a031690565b34801561047557600080fd5b5060c954600160a060020a0316610394565b34801561049357600080fd5b506103946104a2366004613737565b61143a565b3480156104b357600080fd5b506102386104c2366004613708565b61145b565b3480156104d357600080fd5b506102b6600081565b6102e46104ea366004613649565b611486565b3480156104fb57600080fd5b506102e461050a366004613780565b6117eb565b34801561051b57600080fd5b506102e461052a3660046137b3565b611841565b6102e461053d3660046136f0565b6118b3565b34801561054e57600080fd5b506102b661055d3660046136f0565b611bfe565b34801561056e57600080fd5b506102e461057d3660046135f1565b611c15565b34801561058e57600080fd5b506102b6600080516020613d9e83398151915281565b3480156105b057600080fd5b506102e46105bf366004613708565b611c9a565b3480156105d057600080fd5b506106276105df3660046136f0565b604080518082019091526000808252602082015250600090815261012f602090815260409182902082518084019093528054600160a060020a03168352600101549082015290565b6040516102449190613c36565b34801561064057600080fd5b506102e461064f366004613856565b611cc6565b34801561066057600080fd5b506102b67f65d7a28e3265b37a6474929f336521b332c1681b933f6cb9f3376673440d862a81565b34801561069457600080fd5b506106e56106a33660046136f0565b600090815261012f60209081526040808320805460019182015461013085528386209092015461012d9094529190932054600160a060020a0391821694911690565b60408051600160a060020a03958616815260208101949094528301919091529091166060820152608001610244565b34801561072057600080fd5b506102e461072f366004613511565b611f9f565b34801561074057600080fd5b506101335460405161ffff9091168152602001610244565b34801561076457600080fd5b50610132546102b6565b34801561077a57600080fd5b506102e4610789366004613708565b611fee565b6000600160e060020a031982167f5a05180f0000000000000000000000000000000000000000000000000000000014806107cc57506107cc826121eb565b90505b919050565b600080600080848060200190518101906107ee91906138e7565b925092509250826001141561080d57610808878288612252565b610822565b826002141561082257610822878383896122d2565b507f150b7a0200000000000000000000000000000000000000000000000000000000979650505050505050565b600080516020613dbe8339815191528214156108f75761087c600080516020613dbe833981519152611bfe565b156108f75760405160e560020a62461bcd02815260206004820152602760248201527f65786163746c79206f6e6520616464726573732063616e20686176652061646d60448201527f696e20726f6c650000000000000000000000000000000000000000000000000060648201526084015b60405180910390fd5b61090182826123f2565b5050565b61091d600080516020613dbe833981519152336104c2565b8061093b575061093b600080516020613d9e833981519152336104c2565b80610950575060c954600160a060020a031633145b61096f5760405160e560020a62461bcd0281526004016108ee90613bff565b61097884612418565b156109985760405160e560020a62461bcd0281526004016108ee90613ba2565b60005b8451811015610a395761012d60008481526020019081526020016000206001018582815181106109de5760e060020a634e487b7102600052603260045260246000fd5b60209081029190910181015182546001808201855560009485529383902082516002909202018054600160a060020a031916600160a060020a0390921691909117815591015191015580610a3181613d3b565b91505061099b565b50600082815261012d60205260408082208054600160a060020a031916600160a060020a03871617905580518082019091528551819087908490610a905760e060020a634e487b7102600052603260045260246000fd5b602002602001015160000151600160a060020a0316815260200186600081518110610ace5760e060020a634e487b7102600052603260045260246000fd5b60209081029190910181015101519052610133546040517fcc3961b0000000000000000000000000000000000000000000000000000000008152919250620100009004600160a060020a03169063cc3961b090610b359030908790879087906004016139e5565b600060405180830381600087803b158015610b4f57600080fd5b505af1158015610b63573d6000803e3d6000fd5b50505050610b72836001612480565b6000838152610130602052604090206001018690558284600160a060020a03167f233b57d2eb4596662357272de5323e86061c1720d23cf7989effd3d1c4d6e00c88604051610bc391815260200190565b60405180910390a3505050505050565b600160a060020a0381163314610c545760405160e560020a62461bcd02815260206004820152602f60248201527f416363657373436f6e74726f6c3a2063616e206f6e6c792072656e6f756e636560448201527f20726f6c657320666f722073656c66000000000000000000000000000000000060648201526084016108ee565b61090182826124fa565b610c76600080516020613dbe833981519152336104c2565b80610c8b575060c954600160a060020a031633145b610caa5760405160e560020a62461bcd0281526004016108ee90613a45565b600080516020613d9e83398151915281141561090157610901818361251c565b600081815261012d6020526040902054600160a060020a03163314610d345760405160e560020a62461bcd02815260206004820152601660248201527f4e6f74206f776e6572206f662074686520746f6b656e0000000000000000000060448201526064016108ee565b600081815261012f6020526040902054600160a060020a031615610dc35760405160e560020a62461bcd02815260206004820152602560248201527f63616e6e6f742063616e63656c2069662062696464696e67206861732073746160448201527f727465642000000000000000000000000000000000000000000000000000000060648201526084016108ee565b6101335460405160e160020a6331a9108f0281526004810183905262010000909104600160a060020a0316906323b872dd908290636352211e9060240160206040518083038186803b158015610e1857600080fd5b505afa158015610e2c573d6000803e3d6000fd5b505050506040513d601f19601f82011682018060405250810190610e50919061352d565b600084815261012d60205260409081902054905160e060020a63ffffffff8516028152610e8c9291600160a060020a03169086906004016139c1565b600060405180830381600087803b158015610ea657600080fd5b505af1158015610eba573d6000803e3d6000fd5b505050600082815261012f602090815260408083208054600160a060020a03199081168255600191820185905561012e84528285208590556101309093528184208054909316835591909101829055518392507f8bf30e7ff26833413be5f69e1d373744864d600b664204b4a2f9844a8eedb9ed9190a250565b600260fb541415610f5a5760405160e560020a62461bcd0281526004016108ee90613b6b565b600260fb819055600082815261012e602052604090205414610fc15760405160e560020a62461bcd02815260206004820152601a60248201527f5468657265206973206e6f206163746976652061756374696f6e00000000000060448201526064016108ee565b600081815261012f602052604090206001015434116110255760405160e560020a62461bcd02815260206004820152601f60248201527f496e73756666696369656e742066756e6420746f206d616b652061206269640060448201526064016108ee565b61102e81612526565b61103981333461258b565b604051348152339082907fdcd726e11f8b5e160f00290f0fe3a1abb547474e53a8e7a8f49a85e7b1ca31999060200160405180910390a350600160fb55565b611090600080516020613dbe833981519152336104c2565b806110a5575060c954600160a060020a031633145b6110c45760405160e560020a62461bcd0281526004016108ee90613a45565b6110cd81612621565b61013255565b60006110ee600080516020613dbe833981519152600061143a565b9050611108600080516020613dbe83398151915282611c9a565b610901600080516020613dbe8339815191528361084f565b611138600080516020613dbe833981519152336104c2565b806111565750611156600080516020613d9e833981519152336104c2565b8061116b575060c954600160a060020a031633145b61118a5760405160e560020a62461bcd0281526004016108ee90613bff565b600260fb5414156111b05760405160e560020a62461bcd0281526004016108ee90613b6b565b600260fb556111be84612418565b156111de5760405160e560020a62461bcd0281526004016108ee90613ba2565b60005b845181101561127f5761012d60008481526020019081526020016000206001018582815181106112245760e060020a634e487b7102600052603260045260246000fd5b60209081029190910181015182546001808201855560009485529383902082516002909202018054600160a060020a031916600160a060020a039092169190911781559101519101558061127781613d3b565b9150506111e1565b5060006040518060400160405280866000815181106112b15760e060020a634e487b7102600052603260045260246000fd5b602002602001015160000151600160a060020a03168152602001866000815181106112ef5760e060020a634e487b7102600052603260045260246000fd5b60209081029190910181015101519052610133546040517fcc3961b0000000000000000000000000000000000000000000000000000000008152919250620100009004600160a060020a03169063cc3961b0906113569087908790879087906004016139e5565b600060405180830381600087803b15801561137057600080fd5b505af1158015611384573d6000803e3d6000fd5b505050508284600160a060020a03166000600160a060020a03167f89f5adc174562e07c9c9b1cae7109bbecb21cf9d1b2847e550042b8653c54a0e60006040516113d091815260200190565b60405180910390a45050600090815261012d60205260409020600201805460ff1916600190811790915560fb555050565b60c954600160a060020a0316331461142e5760405160e560020a62461bcd0281526004016108ee90613ad9565b611438600061269c565b565b600082815260976020526040812061145290836126ee565b90505b92915050565b6000918252606560209081526040808420600160a060020a0393909316845291905290205460ff1690565b600260fb5414156114ac5760405160e560020a62461bcd0281526004016108ee90613b6b565b600260fb55600082815261013060205260409020600101546115395760405160e560020a62461bcd02815260206004820152602b60248201527f54686973206f7065726174696f6e206e6f74207065726d697474656420666f7260448201527f207468697320617373657400000000000000000000000000000000000000000060648201526084016108ee565b600082815261013060205260409020600101543410156115c45760405160e560020a62461bcd02815260206004820152602360248201527f496e73756666696369656e742066756e6420746f20707572636861736520746f60448201527f6b656e000000000000000000000000000000000000000000000000000000000060648201526084016108ee565b600281141561160a576115d682612526565b600082815261012e6020908152604080832083905561012f90915281208054600160a060020a03191681556001015561165d565b6001811461165d5760405160e560020a62461bcd02815260206004820152601560248201527f496e76616c69642070757263686173652074797065000000000000000000000060448201526064016108ee565b6000828152610130602052604090206001015461167b9083906126fa565b600082815261012d60209081526040808320546101308352928190206001015490519081528492600160a060020a03878116939116917f89f5adc174562e07c9c9b1cae7109bbecb21cf9d1b2847e550042b8653c54a0e910160405180910390a46101335460405160e160020a6331a9108f0281526004810184905262010000909104600160a060020a0316906323b872dd908290636352211e9060240160206040518083038186803b15801561173157600080fd5b505afa158015611745573d6000803e3d6000fd5b505050506040513d601f19601f82011682018060405250810190611769919061352d565b85856040518463ffffffff1660e060020a02815260040161178c939291906139c1565b600060405180830381600087803b1580156117a657600080fd5b505af11580156117ba573d6000803e3d6000fd5b50505060009283525050610130602052604081208054600160a060020a031916815560019081019190915560fb5550565b611803600080516020613dbe833981519152336104c2565b80611818575060c954600160a060020a031633145b6118375760405160e560020a62461bcd0281526004016108ee90613a45565b61090182826129b1565b611859600080516020613dbe833981519152336104c2565b8061186e575060c954600160a060020a031633145b61188d5760405160e560020a62461bcd0281526004016108ee90613a45565b61189a8161ffff16612621565b610133805461ffff191661ffff92909216919091179055565b6118cb600080516020613dbe833981519152336104c2565b806118e0575060c954600160a060020a031633145b6118ff5760405160e560020a62461bcd0281526004016108ee90613a45565b600260fb5414156119255760405160e560020a62461bcd0281526004016108ee90613b6b565b600260fb55600081815261012f6020526040902054600160a060020a0316611a47576101335460405160e160020a6331a9108f0281526004810183905262010000909104600160a060020a0316906323b872dd908290636352211e9060240160206040518083038186803b15801561199c57600080fd5b505afa1580156119b0573d6000803e3d6000fd5b505050506040513d601f19601f820116820180604052508101906119d4919061352d565b600084815261012d60205260409081902054905160e060020a63ffffffff8516028152611a109291600160a060020a03169086906004016139c1565b600060405180830381600087803b158015611a2a57600080fd5b505af1158015611a3e573d6000803e3d6000fd5b50505050611b60565b6101335460405160e160020a6331a9108f0281526004810183905262010000909104600160a060020a0316906323b872dd908290636352211e9060240160206040518083038186803b158015611a9c57600080fd5b505afa158015611ab0573d6000803e3d6000fd5b505050506040513d601f19601f82011682018060405250810190611ad4919061352d565b600084815261012f60205260409081902054905160e060020a63ffffffff8516028152611b109291600160a060020a03169086906004016139c1565b600060405180830381600087803b158015611b2a57600080fd5b505af1158015611b3e573d6000803e3d6000fd5b505050600082815261012f6020526040902060010154611b60915082906126fa565b600081815261012f60208181526040808420805461012d845294829020549383526001015490519081528493600160a060020a039081169316917f99a13c354f6ba3a91f80fde187c9b620419a27964c25909d8e710178e70cbdb5910160405180910390a4600090815261012e6020908152604080832083905561012f90915281208054600160a060020a031916815560019081019190915560fb55565b60008181526097602052604081206107cc90612a23565b600054610100900460ff16611c305760005460ff1615611c34565b303b155b611c535760405160e560020a62461bcd0281526004016108ee90613a7c565b600054610100900460ff16158015611c75576000805461ffff19166101011790555b611c8185858585612a2d565b8015611c93576000805461ff00191690555b5050505050565b600082815260656020526040902060010154611cb781335b612ab9565b611cc183836124fa565b505050565b611cde600080516020613dbe833981519152336104c2565b80611cfc5750611cfc600080516020613d9e833981519152336104c2565b80611d11575060c954600160a060020a031633145b611d305760405160e560020a62461bcd0281526004016108ee90613bff565b611d3984612418565b15611d595760405160e560020a62461bcd0281526004016108ee90613ba2565b60005b8451811015611dfa5761012d6000848152602001908152602001600020600101858281518110611d9f5760e060020a634e487b7102600052603260045260246000fd5b60209081029190910181015182546001808201855560009485529383902082516002909202018054600160a060020a031916600160a060020a0390921691909117815591015191015580611df281613d3b565b915050611d5c565b50600082815261012d60205260408082208054600160a060020a031916600160a060020a03871617905580518082019091528551819087908490611e515760e060020a634e487b7102600052603260045260246000fd5b602002602001015160000151600160a060020a0316815260200186600081518110611e8f5760e060020a634e487b7102600052603260045260246000fd5b60209081029190910181015101519052610133546040517fcc3961b0000000000000000000000000000000000000000000000000000000008152919250620100009004600160a060020a03169063cc3961b090611ef69030908790879087906004016139e5565b600060405180830381600087803b158015611f1057600080fd5b505af1158015611f24573d6000803e3d6000fd5b50505050611f33836002612480565b611f3d8388612b20565b6000838152610130602052604090206001018690558284600160a060020a03167fe7102271d20e41cf582742f475a5e3da6795bcd2469fa3763a09e23cf9f1b72589604051611f8e91815260200190565b60405180910390a350505050505050565b60c954600160a060020a03163314611fcc5760405160e560020a62461bcd0281526004016108ee90613ad9565b611fd581612b9f565b611fe060008261251c565b611feb600033610321565b50565b612006600080516020613dbe833981519152336104c2565b806120245750612024600080516020613d9e833981519152336104c2565b80612039575060c954600160a060020a031633145b6120585760405160e560020a62461bcd0281526004016108ee90613bff565b600260fb54141561207e5760405160e560020a62461bcd0281526004016108ee90613b6b565b600260fb55600082815261012d60205260408082205490518492600160a060020a038086169316917f89f5adc174562e07c9c9b1cae7109bbecb21cf9d1b2847e550042b8653c54a0e916120d59190815260200190565b60405180910390a46101335460405160e160020a6331a9108f0281526004810184905262010000909104600160a060020a0316906323b872dd908290636352211e9060240160206040518083038186803b15801561213257600080fd5b505afa158015612146573d6000803e3d6000fd5b505050506040513d601f19601f8201168201806040525081019061216a919061352d565b83856040518463ffffffff1660e060020a02815260040161218d939291906139c1565b600060405180830381600087803b1580156121a757600080fd5b505af11580156121bb573d6000803e3d6000fd5b50505060009283525050610130602052604081208054600160a060020a031916815560019081019190915560fb55565b6000600160e060020a031982167f7965db0b0000000000000000000000000000000000000000000000000000000014806107cc57507f01ffc9a700000000000000000000000000000000000000000000000000000000600160e060020a03198316146107cc565b61225d816001612480565b60008181526101306020908152604080832060010185905561012d8252918290208054600160a060020a031916600160a060020a03871690811790915582518581529251849391927f233b57d2eb4596662357272de5323e86061c1720d23cf7989effd3d1c4d6e00c928290030190a3505050565b6122dd816002612480565b6122e78184612b20565b600081815261013060205260409020600101829055600081815261012d6020526040908190208054600160a060020a031916600160a060020a038781169190911790915561013354915160e160020a6331a9108f02815260048101849052839262010000900490911690636352211e9060240160206040518083038186803b15801561237257600080fd5b505afa158015612386573d6000803e3d6000fd5b505050506040513d601f19601f820116820180604052508101906123aa919061352d565b600160a060020a03167fe7102271d20e41cf582742f475a5e3da6795bcd2469fa3763a09e23cf9f1b725856040516123e491815260200190565b60405180910390a350505050565b60008281526065602052604090206001015461240e8133611cb2565b611cc18383612c54565b60008060005b83518110156124755783818151811061244a5760e060020a634e487b7102600052603260045260246000fd5b602002602001015160200151826124619190613c87565b91508061246d81613d3b565b91505061241e565b506113881092915050565b80158061248d5750600181145b806124985750600281145b6124e75760405160e560020a62461bcd02815260206004820152601960248201527f496e76616c696420746f6b656e2073616c65207374617475730000000000000060448201526064016108ee565b600091825261012e602052604090912055565b6125048282612c76565b6000828152609760205260409020611cc19082612cdd565b6109018282612c54565b600081815261012f602052604090208054600190910154600160a060020a03909116908115611cc157604051600160a060020a0383169082156108fc029083906000818181858888f19350505050158015612585573d6000803e3d6000fd5b50505050565b600083815261012e60205260409020546002146125ed5760405160e560020a62461bcd02815260206004820152601160248201527f4e6f206163746976652061756374696f6e00000000000000000000000000000060448201526064016108ee565b600092835261012f60205260409092208054600160a060020a031916600160a060020a039290921691909117815560010155565b611388811115611feb5760405160e560020a62461bcd02815260206004820152602160248201527f6d61696e7461696e6572206665652063616e6e6f74206578636565642068616c60448201527f660000000000000000000000000000000000000000000000000000000000000060648201526084016108ee565b60c98054600160a060020a03838116600160a060020a0319831681179093556040519116919082907f8be0079c531659141344cd1fd0a4f28419497f9722a3daafe3b4186f6b6457e090600090a35050565b60006114528383612cf2565b600082815261012d6020526040812060028101548291849160019091019060ff1615612827576101325461273d9061271090612737908890612d2d565b90612d39565b925060005b8154811015612821576127986127106127378484815481106127775760e060020a634e487b7102600052603260045260246000fd5b90600052602060002090600202016001015489612d2d90919063ffffffff16565b94506127a48386612d45565b92508181815481106127c95760e060020a634e487b7102600052603260045260246000fd5b60009182526020822060029091020154604051600160a060020a039091169187156108fc02918891818181858888f1935050505015801561280e573d6000803e3d6000fd5b508061281981613d3b565b915050612742565b50612908565b61013354612842906127109061273790889061ffff16612d2d565b92508054612854906127378786612d45565b935060005b81548110156128e95761286c8386612d45565b92508181815481106128915760e060020a634e487b7102600052603260045260246000fd5b60009182526020822060029091020154604051600160a060020a039091169187156108fc02918891818181858888f193505050501580156128d6573d6000803e3d6000fd5b50806128e181613d3b565b915050612859565b50600086815261012d60205260409020600201805460ff191660011790555b61013154600160a060020a0316156129635761013154604051600160a060020a039091169084156108fc029085906000818181858888f19350505050158015612955573d6000803e3d6000fd5b506129608284612d45565b91505b600086815261012d6020526040808220549051600160a060020a039091169184156108fc02918591818181858888f193505050501580156129a8573d6000803e3d6000fd5b50505050505050565b8151600160a060020a03166129c557600080fd5b6129d28260200151612621565b6129df8161ffff16612621565b81516101318054600160a060020a031916600160a060020a0390921691909117905560209091015161013255610133805461ffff191661ffff909216919091179055565b60006107cc825490565b600054610100900460ff16612a485760005460ff1615612a4c565b303b155b612a6b5760405160e560020a62461bcd0281526004016108ee90613a7c565b600054610100900460ff16158015612a8d576000805461ffff19166101011790555b612a9985858585612d51565b612aa1612e39565b612aa9612e6a565b612ab1612e6a565b611c81612e94565b612ac3828261145b565b61090157612adb81600160a060020a03166014612ec7565b612ae6836020612ec7565b604051602001612af7929190613940565b60408051601f198184030181529082905260e560020a62461bcd0282526108ee91600401613a32565b600082815261012f6020526040902054600160a060020a031615612b895760405160e560020a62461bcd02815260206004820152601d60248201527f5468652061756374696f6e206973206e6f742079657420636c6f73656400000060448201526064016108ee565b600091825261012f602052604090912060010155565b60c954600160a060020a03163314612bcc5760405160e560020a62461bcd0281526004016108ee90613ad9565b600160a060020a038116612c4b5760405160e560020a62461bcd02815260206004820152602660248201527f4f776e61626c653a206e6577206f776e657220697320746865207a65726f206160448201527f646472657373000000000000000000000000000000000000000000000000000060648201526084016108ee565b611feb8161269c565b612c5e8282613166565b6000828152609760205260409020611cc190826131ec565b612c80828261145b565b15610901576000828152606560209081526040808320600160a060020a0385168085529252808320805460ff1916905551339285917ff6391f5c32d9c69d2a47ea670b442974b53935d1edc7fd64eb21e047a839171b9190a45050565b600061145283600160a060020a038416613201565b6000826000018281548110612d1a5760e060020a634e487b7102600052603260045260246000fd5b9060005260206000200154905092915050565b60006114528284613cc2565b60006114528284613c9f565b60006114528284613ce1565b600054610100900460ff16612d6c5760005460ff1615612d70565b303b155b612d8f5760405160e560020a62461bcd0281526004016108ee90613a7c565b600054610100900460ff16158015612db1576000805461ffff19166101011790555b612dbb84846129b1565b612dc660003361251c565b612dde600080516020613dbe8339815191528661251c565b612e04600080516020613d9e833981519152600080516020613dbe833981519152613327565b610133805475ffffffffffffffffffffffffffffffffffffffff0000191662010000600160a060020a03851602179055611c81565b600054610100900460ff16612e635760405160e560020a62461bcd0281526004016108ee90613b0e565b600160fb55565b600054610100900460ff166114385760405160e560020a62461bcd0281526004016108ee90613b0e565b600054610100900460ff16612ebe5760405160e560020a62461bcd0281526004016108ee90613b0e565b6114383361269c565b60606000612ed6836002613cc2565b612ee1906002613c87565b67ffffffffffffffff811115612f0a5760e060020a634e487b7102600052604160045260246000fd5b6040519080825280601f01601f191660200182016040528015612f34576020820181803683370190505b5090507f300000000000000000000000000000000000000000000000000000000000000081600081518110612f7c5760e060020a634e487b7102600052603260045260246000fd5b60200101907effffffffffffffffffffffffffffffffffffffffffffffffffffffffffffff1916908160001a9053507f780000000000000000000000000000000000000000000000000000000000000081600181518110612ff05760e060020a634e487b7102600052603260045260246000fd5b60200101907effffffffffffffffffffffffffffffffffffffffffffffffffffffffffffff1916908160001a905350600061302c846002613cc2565b613037906001613c87565b90505b6001811115613114577f303132333435363738396162636465660000000000000000000000000000000085600f16601081106130895760e060020a634e487b7102600052603260045260246000fd5b1a7f0100000000000000000000000000000000000000000000000000000000000000028282815181106130cf5760e060020a634e487b7102600052603260045260246000fd5b60200101907effffffffffffffffffffffffffffffffffffffffffffffffffffffffffffff1916908160001a90535060109094049361310d81613d24565b905061303a565b5083156114525760405160e560020a62461bcd02815260206004820181905260248201527f537472696e67733a20686578206c656e67746820696e73756666696369656e7460448201526064016108ee565b613170828261145b565b610901576000828152606560209081526040808320600160a060020a03851684529091529020805460ff191660011790556131a83390565b600160a060020a031681600160a060020a0316837f2f8788117e7eff1d82e926ec794901d17c78024a50270940304540a733656f0d60405160405180910390a45050565b600061145283600160a060020a038416613372565b6000818152600183016020526040812054801561331d576000613225600183613ce1565b855490915060009061323990600190613ce1565b90508181146132c057600086600001828154811061326a5760e060020a634e487b7102600052603260045260246000fd5b906000526020600020015490508087600001848154811061329e5760e060020a634e487b7102600052603260045260246000fd5b6000918252602080832090910192909255918252600188019052604090208390555b85548690806132e25760e060020a634e487b7102600052603160045260246000fd5b600190038181906000526020600020016000905590558560010160008681526020019081526020016000206000905560019350505050611455565b6000915050611455565b600082815260656020526040808220600101805490849055905190918391839186917fbd79b86ffe0ab8e8776151514217cd7cacd52c909f66475c3af44e129f0b00ff9190a4505050565b60008181526001830160205260408120546133b957508154600181810184556000848152602080822090930184905584548482528286019093526040902091909155611455565b506000611455565b600067ffffffffffffffff8311156133db576133db613d6f565b6133ee601f8401601f1916602001613c56565b905082815283838301111561340257600080fd5b828260208301376000602084830101529392505050565b600082601f830112613429578081fd5b8135602067ffffffffffffffff82111561344557613445613d6f565b6134528182840201613c56565b82815281810190858301604080860288018501891015613470578687fd5b865b86811015613496576134848a846134c3565b85529385019391810191600101613472565b509198975050505050505050565b600082601f8301126134b4578081fd5b611452838335602085016133c1565b6000604082840312156134d4578081fd5b6134de6040613c56565b905081356134eb81613d88565b808252506020820135602082015292915050565b803561ffff811681146107cf57600080fd5b600060208284031215613522578081fd5b813561145281613d88565b60006020828403121561353e578081fd5b815161145281613d88565b6000806000806080858703121561355e578283fd5b843561356981613d88565b9350602085013561357981613d88565b925060408501359150606085013567ffffffffffffffff81111561359b578182fd5b8501601f810187136135ab578182fd5b6135ba878235602084016133c1565b91505092959194509250565b600080604083850312156135d8578182fd5b82356135e381613d88565b946020939093013593505050565b60008060008060a08587031215613606578384fd5b843561361181613d88565b935061362086602087016134c3565b925061362e606086016134ff565b9150608085013561363e81613d88565b939692955090935050565b60008060006060848603121561365d578283fd5b833561366881613d88565b95602085013595506040909401359392505050565b60008060008060808587031215613692578384fd5b843567ffffffffffffffff808211156136a9578586fd5b6136b588838901613419565b9550602087013591506136c782613d88565b90935060408601359250606086013590808211156136e3578283fd5b506135ba878288016134a4565b600060208284031215613701578081fd5b5035919050565b6000806040838503121561371a578182fd5b82359150602083013561372c81613d88565b809150509250929050565b60008060408385031215613749578182fd5b50508035926020909101359150565b600060208284031215613769578081fd5b8135600160e060020a031981168114611452578182fd5b60008060608385031215613792578182fd5b61379c84846134c3565b91506137aa604084016134ff565b90509250929050565b6000602082840312156137c4578081fd5b611452826134ff565b600080600080600060a086880312156137e4578283fd5b85359450602086013567ffffffffffffffff80821115613802578485fd5b61380e89838a01613419565b95506040880135915061382082613d88565b909350606087013592506080870135908082111561383c578283fd5b50613849888289016134a4565b9150509295509295909350565b60008060008060008060c0878903121561386e578384fd5b8635955060208701359450604087013567ffffffffffffffff80821115613893578586fd5b61389f8a838b01613419565b9550606089013591506138b182613d88565b9093506080880135925060a088013590808211156138cd578283fd5b506138da89828a016134a4565b9150509295509295509295565b6000806000606084860312156138fb578081fd5b8351925060208401519150604084015190509250925092565b6000815180845261392c816020860160208601613cf8565b601f01601f19169290920160200192915050565b60007f416363657373436f6e74726f6c3a206163636f756e742000000000000000000082528351613978816017850160208801613cf8565b7f206973206d697373696e6720726f6c652000000000000000000000000000000060179184019182015283516139b5816028840160208801613cf8565b01602801949350505050565b600160a060020a039384168152919092166020820152604081019190915260600190565b6000600160a060020a038616825284602083015260a06040830152613a0d60a0830185613914565b8351600160a060020a0316606084015260208401516080840152905095945050505050565b6000602082526114526020830184613914565b60208082526014908201527f5265737472696374656420746f2061646d696e2e000000000000000000000000604082015260600190565b6020808252602e908201527f496e697469616c697a61626c653a20636f6e747261637420697320616c72656160408201527f647920696e697469616c697a6564000000000000000000000000000000000000606082015260800190565b6020808252818101527f4f776e61626c653a2063616c6c6572206973206e6f7420746865206f776e6572604082015260600190565b6020808252602b908201527f496e697469616c697a61626c653a20636f6e7472616374206973206e6f74206960408201527f6e697469616c697a696e67000000000000000000000000000000000000000000606082015260800190565b6020808252601f908201527f5265656e7472616e637947756172643a207265656e7472616e742063616c6c00604082015260600190565b6020808252602d908201527f43726561746f72732073686172652073686f756c646e2774206578636565642060408201527f68616c66206f6620707269636500000000000000000000000000000000000000606082015260800190565b60208082526015908201527f5265737472696374656420746f206d696e7465722e0000000000000000000000604082015260600190565b8151600160a060020a031681526020808301519082015260408101611455565b604051601f8201601f1916810167ffffffffffffffff81118282101715613c7f57613c7f613d6f565b604052919050565b60008219821115613c9a57613c9a613d56565b500190565b600082613cbd5760e060020a634e487b710281526012600452602481fd5b500490565b6000816000190483118215151615613cdc57613cdc613d56565b500290565b600082821015613cf357613cf3613d56565b500390565b60005b83811015613d13578181015183820152602001613cfb565b838111156125855750506000910152565b600081613d3357613d33613d56565b506000190190565b6000600019821415613d4f57613d4f613d56565b5060010190565b60e060020a634e487b7102600052601160045260246000fd5b60e060020a634e487b7102600052604160045260246000fd5b600160a060020a0381168114611feb57600080fdfe9f2df0fed2c77648de5860a4cc508cd0818c85b8b8a1ab4ceeef8d981c8956a6a49807205ce4d355092ef5a8a18f56e8913cf4a201fbe287825b095693c21775a264697066735822122038c473971baeb982977b0dbe3b07c1b4e7114953b8b74cc22a3c32e641f57b8064736f6c63430008030033",
  "immutableReferences": {},
  "source": "// SPDX-License-Identifier: MIT\n\npragma solidity ^0.8.0;\n\nimport \"@openzeppelin/contracts-upgradeable/access/AccessControlEnumerableUpgradeable.sol\";\nimport \"@openzeppelin/contracts-upgradeable/access/OwnableUpgradeable.sol\";\nimport \"@openzeppelin/contracts-upgradeable/proxy/utils/Initializable.sol\";\nimport \"@openzeppelin/contracts-upgradeable/token/ERC721/utils/ERC721HolderUpgradeable.sol\";\nimport \"@openzeppelin/contracts-upgradeable/utils/math/SafeMathUpgradeable.sol\";\nimport \"@openzeppelin/contracts-upgradeable/security/ReentrancyGuardUpgradeable.sol\";\n\nlibrary libERC721Fee {\n    uint256 constant TYPE_DEFAULT = 0;\n    uint256 constant TYPE_SALE = 1;\n    uint256 constant TYPE_AUCTION = 2;\n\n    struct Part {\n        address payable account;\n        uint256 value;\n    }\n\n    struct Data {\n        address payable collectableOwner;\n        Part[] creators;\n        bool isSecondary;\n    }\n}\n\ninterface NFTMarketplaceUpgradable {\n    struct Royalties {\n        address payable account;\n        uint256 percentage;\n    }\n\n    function mint(\n        address receiver,\n        uint256 collectibleId,\n        string memory IPFSHash,\n        Royalties calldata royalties\n    ) external;\n\n    function ownerOf(uint256 _tokenId) external view returns (address);\n\n    function transferFrom(\n        address _from,\n        address _to,\n        uint256 _tokenId\n    ) external payable;\n}\n\ncontract AshlyNFTMarketplaceUpgradable is\n    Initializable,\n    AccessControlEnumerableUpgradeable,\n    OwnableUpgradeable,\n    ReentrancyGuardUpgradeable,\n    IERC721ReceiverUpgradeable\n{\n    using SafeMathUpgradeable for uint256;\n\n    function initialize(\n        address rootAdmin,\n        libERC721Fee.Part memory _maintainer,\n        uint16 _maintainerInitialFee,\n        NFTMarketplaceUpgradable _tokenerc721\n    ) public virtual initializer {\n        __AshlyNFTMarketplaceUpgradable_init(\n            rootAdmin,\n            _maintainer,\n            _maintainerInitialFee,\n            _tokenerc721\n        );\n    }\n\n    bytes32 public constant MINTER_ROLE = keccak256(\"MINTER_ROLE\");\n    bytes32 public constant PAUSER_ROLE = keccak256(\"PAUSER_ROLE\");\n    bytes32 public constant ADMIN_ROLE = keccak256(\"ADMIN_ROLE\");\n\n    function __AshlyNFTMarketplaceUpgradable_init(\n        address rootAdmin,\n        libERC721Fee.Part memory _maintainer,\n        uint16 _maintainerInitialFee,\n        NFTMarketplaceUpgradable _tokenerc721\n    ) internal initializer {\n        __AshlyNFTMarketplaceUpgradable_init_unchained(\n            rootAdmin,\n            _maintainer,\n            _maintainerInitialFee,\n            _tokenerc721\n        );\n        __ReentrancyGuard_init_unchained();\n        __AccessControl_init_unchained();\n        __AccessControlEnumerable_init_unchained();\n        __Ownable_init_unchained();\n    }\n\n    function __AshlyNFTMarketplaceUpgradable_init_unchained(\n        address rootAdmin,\n        libERC721Fee.Part memory _maintainer,\n        uint16 _maintainerInitialFee,\n        NFTMarketplaceUpgradable _tokenerc721\n    ) internal initializer {\n        _setMaintainer(_maintainer, _maintainerInitialFee);\n        _setupRole(DEFAULT_ADMIN_ROLE, _msgSender());\n        _setupRole(ADMIN_ROLE, rootAdmin);\n        _setRoleAdmin(MINTER_ROLE, ADMIN_ROLE);\n        _setNftToken(_tokenerc721);\n    }\n\n    mapping(uint256 => libERC721Fee.Data) private tokenSaleData;\n    mapping(uint256 => uint256) private saleStatus;\n    mapping(uint256 => libERC721Fee.Part) auction;\n    mapping(uint256 => libERC721Fee.Part) sale;\n    libERC721Fee.Part private maintainer;\n    uint16 private maintainerInitialFee;\n\n    NFTMarketplaceUpgradable private tokenerc721;\n\n    event StartAuction(\n        address indexed tokenOwner,\n        uint256 indexed tokenId,\n        uint256 basePrice\n    );\n    event StartSale(\n        address indexed tokenOwner,\n        uint256 indexed tokenId,\n        uint256 basePrice\n    );\n    event Buy(\n        address indexed from,\n        address indexed to,\n        uint256 indexed tokenId,\n        uint256 price\n    );\n    event Bid(\n        uint256 indexed tokenId,\n        address indexed currentBidder,\n        uint256 biddingAmount\n    );\n    event AuctionSettlement(\n        address indexed from,\n        address indexed to,\n        uint256 indexed tokenId,\n        uint256 price\n    );\n    event Cancel(uint256 indexed tokenId);\n\n    /**\n     * @dev overriding the inherited {transferOwnership} function to reflect the admin changes into the {DEFAULT_ADMIN_ROLE}\n     */\n    function transferOwnership(address newOwner) public override onlyOwner {\n        super.transferOwnership(newOwner);\n        _setupRole(DEFAULT_ADMIN_ROLE, newOwner);\n        renounceRole(DEFAULT_ADMIN_ROLE, _msgSender());\n    }\n\n    /**\n     * @dev overriding the inherited {grantRole} function to have a single root admin\n     */\n    function grantRole(bytes32 role, address account) public override {\n        if (role == ADMIN_ROLE)\n            require(\n                getRoleMemberCount(ADMIN_ROLE) == 0,\n                \"exactly one address can have admin role\"\n            );\n\n        super.grantRole(role, account);\n    }\n\n    /**\n     * @dev modifier to check admin rights.\n     * contract owner and root admin have admin rights\n     */\n    modifier onlyAdmin() {\n        require(\n            hasRole(ADMIN_ROLE, _msgSender()) || owner() == _msgSender(),\n            \"Restricted to admin.\"\n        );\n        _;\n    }\n\n    /**\n     * @dev modifier to check mint rights.\n     * contract owner, root admin and minter's have mint rights\n     */\n    modifier onlyMinter() {\n        require(\n            hasRole(ADMIN_ROLE, _msgSender()) ||\n                hasRole(MINTER_ROLE, _msgSender()) ||\n                owner() == _msgSender(),\n            \"Restricted to minter.\"\n        );\n        _;\n    }\n\n    /**\n     * @dev This function is to change the root admin\n     * exaclty one root admin is allowed per contract\n     * only contract owner have the authority to add, remove or change\n     */\n    function changeRootAdmin(address newAdmin) public {\n        address oldAdmin = getRoleMember(ADMIN_ROLE, 0);\n        revokeRole(ADMIN_ROLE, oldAdmin);\n        grantRole(ADMIN_ROLE, newAdmin);\n    }\n\n    /**\n     * @dev This function is to add a minter into the contract,\n     * only root admin and contract owner have the authority to add them\n     * but only the root admin can revoke them using {revokeRole}\n     * minter or pauser can also self renounce the access using {renounceRole}\n     */\n    function addMinter(address account, bytes32 role) public onlyAdmin {\n        if (role == MINTER_ROLE) _setupRole(role, account);\n    }\n\n    function getCurrentBid(uint256 tokenId)\n        public\n        view\n        returns (libERC721Fee.Part memory)\n    {\n        return auction[tokenId];\n    }\n\n    function cancel(uint256 tokenId) public {\n        require(\n            tokenSaleData[tokenId].collectableOwner == msg.sender,\n            \"Not owner of the token\"\n        );\n        require(\n            auction[tokenId].account == address(0),\n            \"cannot cancel if bidding has started \"\n        );\n\n        tokenerc721.transferFrom(\n            tokenerc721.ownerOf(tokenId),\n            tokenSaleData[tokenId].collectableOwner,\n            tokenId\n        );\n\n        delete auction[tokenId];\n        delete saleStatus[tokenId];\n        delete sale[tokenId];\n\n        emit Cancel(tokenId);\n    }\n\n    function _checkPercentageValue(uint256 _value) internal virtual {\n        require(_value <= 5000, \"maintainer fee cannot exceed half\");\n    }\n\n    function _setNftToken(NFTMarketplaceUpgradable _nfttoken) internal virtual {\n        tokenerc721 = _nfttoken;\n    }\n\n    function gettNftAddress() view public returns(NFTMarketplaceUpgradable) { \n        return tokenerc721; \n    }\n\n    function _setMaintainer(\n        libERC721Fee.Part memory _maintainer,\n        uint16 _maintainerInitialFee\n    ) internal virtual {\n        require(_maintainer.account != address(0));\n        _checkPercentageValue(_maintainer.value);\n        _checkPercentageValue(_maintainerInitialFee);\n        maintainer = _maintainer;\n        maintainerInitialFee = _maintainerInitialFee;\n    }\n\n    /**\n     * @dev This funtion is to update maintainer account address,\n     * primary commission percentage and secondery commission percentage.\n     */\n    function updateMaintainer(\n        libERC721Fee.Part memory _maintainer,\n        uint16 _maintainerInitialFee\n    ) public onlyAdmin {\n        _setMaintainer(_maintainer, _maintainerInitialFee);\n    }\n\n    /**\n     * @dev This funtion is to update primary commission percentage.\n     */\n\n    function updatemaintainerInitialFee(uint16 _value) public onlyAdmin {\n        _checkPercentageValue(_value);\n        maintainerInitialFee = _value;\n    }\n\n    /**\n     * @dev This funtion is to update Secondery commission percentage.\n     */\n\n    function updateMaintainerValue(uint256 _value) public onlyAdmin {\n        _checkPercentageValue(_value);\n        maintainer.value = _value;\n    }\n\n    /**\n     * @dev This funtion is to return maintainer account address\n     *\n     */\n    function getMaintainer() public view returns (address) {\n        return maintainer.account;\n    }\n\n    /**\n     * @dev This funtion is to return maintainer fee (secondery sale)\n     *\n     */\n\n    function getMaintainerValue() public view returns (uint256) {\n        return maintainer.value;\n    }\n\n    /**\n     * @dev This funtion is to return maintainer fee (primary sale)\n     *\n     */\n    function getMaintainerInitialFee() public view returns (uint16) {\n        return maintainerInitialFee;\n    }\n\n    /**\n     * @dev This funtion is to return current bidder, current bid, buy now price of auction with tekenId\n     *\n     */\n\n    function getAuctionDetails(uint256 collectableId)\n        public\n        view\n        returns (\n            address,\n            uint256,\n            uint256,\n            address\n        )\n    {\n        return (\n            auction[collectableId].account,\n            auction[collectableId].value,\n            sale[collectableId].value,\n            tokenSaleData[collectableId].collectableOwner\n        );\n    }\n\n    function _setTokenSaleStatus(uint256 tokenId, uint256 status) internal {\n        require(\n            status == libERC721Fee.TYPE_DEFAULT ||\n                status == libERC721Fee.TYPE_SALE ||\n                status == libERC721Fee.TYPE_AUCTION,\n            \"Invalid token sale status\"\n        );\n        saleStatus[tokenId] = status;\n    }\n\n    function _setBasePrice(uint256 tokenId, uint256 basePrice) internal {\n        require(\n            auction[tokenId].account == address(0),\n            \"The auction is not yet closed\"\n        );\n\n        auction[tokenId].value = basePrice;\n    }\n\n    function _setSalePrice(uint256 tokenId, uint256 salePrice) internal {\n        //sale active\n        sale[tokenId].value = salePrice;\n    }\n\n    function _returnCurrentBid(uint256 tokenId) internal {\n        address payable currentBidder = auction[tokenId].account;\n        uint256 currentBid = auction[tokenId].value;\n\n        if (currentBidder != address(0)) {\n            currentBidder.transfer(currentBid);\n        }\n    }\n\n    function _setBidder(\n        uint256 tokenId,\n        address payable bidder,\n        uint256 amount\n    ) internal {\n        require(\n            saleStatus[tokenId] == libERC721Fee.TYPE_AUCTION,\n            \"No active auction\"\n        );\n\n        auction[tokenId].account = bidder;\n        auction[tokenId].value = amount;\n    }\n\n    // As part of the lazy minting this mint function can be called by rootAdmin\n    function mintAndTransfer(\n        libERC721Fee.Part[] memory creators,\n        address receiver,\n        uint256 collectableId,\n        string memory IPFS_hash\n    ) public onlyMinter nonReentrant {\n        require(\n            !_isShareExceedsHalf(creators),\n            \"Creators share shouldn't exceed half of price\"\n        );\n\n        for (uint256 i = 0; i < creators.length; i++) {\n            tokenSaleData[collectableId].creators.push(creators[i]);\n        }\n\n        NFTMarketplaceUpgradable.Royalties\n            memory royalties = NFTMarketplaceUpgradable.Royalties(\n                creators[0].account,\n                creators[0].value\n            );\n\n        NFTMarketplaceUpgradable(tokenerc721).mint(\n            receiver,\n            collectableId,\n            IPFS_hash,\n            royalties\n        );\n        emit Buy(address(0), receiver, collectableId, 0);\n        tokenSaleData[collectableId].isSecondary = true;\n    }\n\n    // As part of the offchain sale this transfer function can be called by rootAdmin\n    function transferAsset(uint256 collectableId, address receiver)\n        public\n        onlyMinter\n        nonReentrant\n    {\n        emit Buy(\n            tokenSaleData[collectableId].collectableOwner,\n            receiver,\n            collectableId,\n            0\n        );\n        tokenerc721.transferFrom(\n            tokenerc721.ownerOf(collectableId),\n            receiver,\n            collectableId\n        );\n        delete sale[collectableId];\n    }\n\n    function mintAndStartAuction(\n        uint256 startingPrice,\n        uint256 salePrice,\n        libERC721Fee.Part[] memory creators,\n        address payable collectableOwner,\n        uint256 collectableId,\n        string memory IPFS_hash\n    ) public onlyMinter {\n        require(\n            !_isShareExceedsHalf(creators),\n            \"Creators share shouldn't exceed half of price\"\n        );\n\n        for (uint256 i = 0; i < creators.length; i++) {\n            tokenSaleData[collectableId].creators.push(creators[i]);\n        }\n        tokenSaleData[collectableId].collectableOwner = collectableOwner;\n\n        NFTMarketplaceUpgradable.Royalties\n            memory royalties = NFTMarketplaceUpgradable.Royalties(\n                creators[0].account,\n                creators[0].value\n            );\n\n        NFTMarketplaceUpgradable(tokenerc721).mint(\n            address(this),\n            collectableId,\n            IPFS_hash,\n            royalties\n        );\n\n        _setTokenSaleStatus(collectableId, libERC721Fee.TYPE_AUCTION);\n        _setBasePrice(collectableId, startingPrice);\n        _setSalePrice(collectableId, salePrice);\n\n        emit StartAuction(collectableOwner, collectableId, startingPrice);\n    }\n\n    function mintAndStartSale(\n        uint256 salePrice,\n        libERC721Fee.Part[] memory creators,\n        address payable collectableOwner,\n        uint256 collectableId,\n        string memory IPFS_hash\n    ) public onlyMinter {\n        require(\n            !_isShareExceedsHalf(creators),\n            \"Creators share shouldn't exceed half of price\"\n        );\n\n        for (uint256 i = 0; i < creators.length; i++) {\n            tokenSaleData[collectableId].creators.push(creators[i]);\n        }\n        tokenSaleData[collectableId].collectableOwner = collectableOwner;\n\n        NFTMarketplaceUpgradable.Royalties\n            memory royalties = NFTMarketplaceUpgradable.Royalties(\n                creators[0].account,\n                creators[0].value\n            );\n\n        NFTMarketplaceUpgradable(tokenerc721).mint(\n            address(this),\n            collectableId,\n            IPFS_hash,\n            royalties\n        );\n\n        _setTokenSaleStatus(collectableId, libERC721Fee.TYPE_SALE);\n        _setSalePrice(collectableId, salePrice);\n\n        emit StartSale(collectableOwner, collectableId, salePrice);\n    }\n\n    /**\n     * @dev See {IERC721Receiver-onERC721Received}.\n     *\n     * Always returns `IERC721Receiver.onERC721Received.selector`.\n     * 0 default, 1 sale, 2 auction\n     */\n    function onERC721Received(\n        address,\n        address _from,\n        uint256 _tokenId,\n        bytes memory _data\n    ) public virtual override returns (bytes4) {\n        (uint256 saleType, uint256 basePrice, uint256 salePrice) = abi.decode(\n            _data,\n            (uint256, uint256, uint256)\n        );\n\n        if (saleType == 1) {\n            startSale(_from, salePrice, _tokenId);\n        } else if (saleType == 2) {\n            startAuction(_from, basePrice, salePrice, _tokenId);\n        }\n\n        return this.onERC721Received.selector;\n    }\n\n    function startAuction(\n        address tokenOwner,\n        uint256 startingPrice,\n        uint256 salePrice,\n        uint256 collectableId\n    ) internal {\n        _setTokenSaleStatus(collectableId, libERC721Fee.TYPE_AUCTION);\n        _setBasePrice(collectableId, startingPrice);\n        _setSalePrice(collectableId, salePrice);\n        tokenSaleData[collectableId].collectableOwner = payable(tokenOwner);\n\n        emit StartAuction(\n            tokenerc721.ownerOf(collectableId),\n            collectableId,\n            startingPrice\n        );\n    }\n\n    function startSale(\n        address tokenOwner,\n        uint256 salePrice,\n        uint256 collectableId\n    ) internal {\n        _setTokenSaleStatus(collectableId, libERC721Fee.TYPE_SALE);\n        _setSalePrice(collectableId, salePrice);\n        tokenSaleData[collectableId].collectableOwner = payable(tokenOwner);\n\n        emit StartSale(tokenOwner, collectableId, salePrice);\n    }\n\n    function bid(uint256 collectableId) public payable nonReentrant {\n        require(\n            saleStatus[collectableId] == libERC721Fee.TYPE_AUCTION,\n            \"There is no active auction\"\n        );\n        require(\n            msg.value > auction[collectableId].value,\n            \"Insufficient fund to make a bid\"\n        );\n        // require(!msg.sender.isContract(), \"Contracts cannot do bidding\");\n\n        _returnCurrentBid(collectableId);\n        _setBidder(collectableId, payable(msg.sender), msg.value);\n\n        emit Bid(collectableId, msg.sender, msg.value);\n    }\n    //this is actually auction settlement\n\n    function auctionSettlement(uint256 collectableId)\n        public\n        payable\n        onlyAdmin\n        nonReentrant\n    {\n        // When there is no active bidding, return the asset to the owner\n        // else transfer the asset to the heigest bidder and initiate the payout process\n        if (auction[collectableId].account == address(0)) {\n            tokenerc721.transferFrom(\n                tokenerc721.ownerOf(collectableId),\n                tokenSaleData[collectableId].collectableOwner,\n                collectableId\n            );\n        } else {\n            tokenerc721.transferFrom(\n                tokenerc721.ownerOf(collectableId),\n                auction[collectableId].account,\n                collectableId\n            );\n            _payout(collectableId, auction[collectableId].value);\n        }\n\n        emit AuctionSettlement(\n            tokenSaleData[collectableId].collectableOwner,\n            auction[collectableId].account,\n            collectableId,\n            auction[collectableId].value\n        );\n\n        delete saleStatus[collectableId];\n        delete auction[collectableId];\n    }\n\n    function buy(\n        address receiver,\n        uint256 collectableId,\n        uint256 purchaseType\n    ) public payable nonReentrant {\n        require(\n            sale[collectableId].value > 0,\n            \"This operation not permitted for this asset\"\n        );\n        require(\n            msg.value >= sale[collectableId].value,\n            \"Insufficient fund to purchase token\"\n        );\n\n        if (purchaseType == libERC721Fee.TYPE_AUCTION) {\n            _returnCurrentBid(collectableId);\n            delete saleStatus[collectableId];\n            delete auction[collectableId];\n        } else {\n            require(\n                purchaseType == libERC721Fee.TYPE_SALE,\n                \"Invalid purchase type\"\n            );\n        }\n\n        _payout(collectableId, sale[collectableId].value);\n        emit Buy(\n            tokenSaleData[collectableId].collectableOwner,\n            receiver,\n            collectableId,\n            sale[collectableId].value\n        );\n        tokenerc721.transferFrom(\n            tokenerc721.ownerOf(collectableId),\n            receiver,\n            collectableId\n        );\n        delete sale[collectableId];\n    }\n\n    function _payout(uint256 collectableId, uint256 price) internal {\n        uint256 creatorsPayment;\n        uint256 maintainerPayment;\n        uint256 ownerPayout = price;\n        libERC721Fee.Part[] storage creators = tokenSaleData[collectableId]\n            .creators;\n\n        if (tokenSaleData[collectableId].isSecondary) {\n            maintainerPayment = price.mul(maintainer.value).div(10000);\n\n            for (uint256 i = 0; i < creators.length; i++) {\n                creatorsPayment = price.mul(creators[i].value).div(10000);\n                ownerPayout = ownerPayout.sub(creatorsPayment);\n                creators[i].account.transfer(creatorsPayment);\n            }\n        } else {\n            maintainerPayment = price.mul(maintainerInitialFee).div(10000);\n\n            if (creators.length >= 0) {\n                creatorsPayment = price.sub(maintainerPayment).div(\n                    creators.length\n                );\n            }\n            for (uint256 i = 0; i < creators.length; i++) {\n                ownerPayout = ownerPayout.sub(creatorsPayment);\n                creators[i].account.transfer(creatorsPayment);\n            }\n\n            tokenSaleData[collectableId].isSecondary = true;\n        }\n\n        if (maintainer.account != address(0)) {\n            maintainer.account.transfer(maintainerPayment);\n            ownerPayout = ownerPayout.sub(maintainerPayment);\n        }\n\n        payable(tokenSaleData[collectableId].collectableOwner).transfer(\n            ownerPayout\n        );\n    }\n\n    function _isShareExceedsHalf(libERC721Fee.Part[] memory creators)\n        internal\n        pure\n        returns (bool)\n    {\n        uint256 accumulatedShare;\n        for (uint256 i = 0; i < creators.length; i++) {\n            accumulatedShare = accumulatedShare + creators[i].value;\n        }\n        return accumulatedShare > 5000;\n    }\n}\n",
  "sourcePath": "/home/karthika/ASHLY_PROJECT/contracts/AshlyNFTMarketplaceUpgradable.sol",
  "compiler": {
    "name": "solc",
    "version": "0.8.3+commit.8d00100c.Emscripten.clang"
  },
  "schemaVersion": "3.4.5",
  "updatedAt": "2022-05-04T05:53:14.439Z",
  "networkType": "ethereum",
  "devdoc": {
    "kind": "dev",
    "methods": {
      "addMinter(address,bytes32)": {
        "details": "This function is to add a minter into the contract, only root admin and contract owner have the authority to add them but only the root admin can revoke them using {revokeRole} minter or pauser can also self renounce the access using {renounceRole}"
      },
      "changeRootAdmin(address)": {
        "details": "This function is to change the root admin exaclty one root admin is allowed per contract only contract owner have the authority to add, remove or change"
      },
      "getAuctionDetails(uint256)": {
        "details": "This funtion is to return current bidder, current bid, buy now price of auction with tekenId"
      },
      "getMaintainer()": {
        "details": "This funtion is to return maintainer account address"
      },
      "getMaintainerInitialFee()": {
        "details": "This funtion is to return maintainer fee (primary sale)"
      },
      "getMaintainerValue()": {
        "details": "This funtion is to return maintainer fee (secondery sale)"
      },
      "getRoleAdmin(bytes32)": {
        "details": "Returns the admin role that controls `role`. See {grantRole} and {revokeRole}. To change a role's admin, use {_setRoleAdmin}."
      },
      "getRoleMember(bytes32,uint256)": {
        "details": "Returns one of the accounts that have `role`. `index` must be a value between 0 and {getRoleMemberCount}, non-inclusive. Role bearers are not sorted in any particular way, and their ordering may change at any point. WARNING: When using {getRoleMember} and {getRoleMemberCount}, make sure you perform all queries on the same block. See the following https://forum.openzeppelin.com/t/iterating-over-elements-on-enumerableset-in-openzeppelin-contracts/2296[forum post] for more information."
      },
      "getRoleMemberCount(bytes32)": {
        "details": "Returns the number of accounts that have `role`. Can be used together with {getRoleMember} to enumerate all bearers of a role."
      },
      "grantRole(bytes32,address)": {
        "details": "overriding the inherited {grantRole} function to have a single root admin"
      },
      "hasRole(bytes32,address)": {
        "details": "Returns `true` if `account` has been granted `role`."
      },
      "onERC721Received(address,address,uint256,bytes)": {
        "details": "See {IERC721Receiver-onERC721Received}. Always returns `IERC721Receiver.onERC721Received.selector`. 0 default, 1 sale, 2 auction"
      },
      "owner()": {
        "details": "Returns the address of the current owner."
      },
      "renounceOwnership()": {
        "details": "Leaves the contract without owner. It will not be possible to call `onlyOwner` functions anymore. Can only be called by the current owner. NOTE: Renouncing ownership will leave the contract without an owner, thereby removing any functionality that is only available to the owner."
      },
      "renounceRole(bytes32,address)": {
        "details": "Revokes `role` from the calling account. Roles are often managed via {grantRole} and {revokeRole}: this function's purpose is to provide a mechanism for accounts to lose their privileges if they are compromised (such as when a trusted device is misplaced). If the calling account had been revoked `role`, emits a {RoleRevoked} event. Requirements: - the caller must be `account`."
      },
      "revokeRole(bytes32,address)": {
        "details": "Revokes `role` from `account`. If `account` had been granted `role`, emits a {RoleRevoked} event. Requirements: - the caller must have ``role``'s admin role."
      },
      "supportsInterface(bytes4)": {
        "details": "See {IERC165-supportsInterface}."
      },
      "transferOwnership(address)": {
        "details": "overriding the inherited {transferOwnership} function to reflect the admin changes into the {DEFAULT_ADMIN_ROLE}"
      },
      "updateMaintainer((address,uint256),uint16)": {
        "details": "This funtion is to update maintainer account address, primary commission percentage and secondery commission percentage."
      },
      "updateMaintainerValue(uint256)": {
        "details": "This funtion is to update Secondery commission percentage."
      },
      "updatemaintainerInitialFee(uint16)": {
        "details": "This funtion is to update primary commission percentage."
      }
    },
    "version": 1
  },
  "userdoc": {
    "kind": "user",
    "methods": {},
    "version": 1
  }
}