{
  "contractName": "NFTMarketplaceUpgradableV2",
  "abi": [
    {
      "anonymous": false,
      "inputs": [
        {
          "indexed": false,
          "internalType": "address",
          "name": "account",
          "type": "address"
        }
      ],
      "name": "AddressBlackListed",
      "type": "event"
    },
    {
      "anonymous": false,
      "inputs": [
        {
          "indexed": false,
          "internalType": "address",
          "name": "account",
          "type": "address"
        }
      ],
      "name": "AddressWhiteListed",
      "type": "event"
    },
    {
      "anonymous": false,
      "inputs": [
        {
          "indexed": true,
          "internalType": "address",
          "name": "owner",
          "type": "address"
        },
        {
          "indexed": true,
          "internalType": "address",
          "name": "approved",
          "type": "address"
        },
        {
          "indexed": true,
          "internalType": "uint256",
          "name": "tokenId",
          "type": "uint256"
        }
      ],
      "name": "Approval",
      "type": "event"
    },
    {
      "anonymous": false,
      "inputs": [
        {
          "indexed": true,
          "internalType": "address",
          "name": "owner",
          "type": "address"
        },
        {
          "indexed": true,
          "internalType": "address",
          "name": "operator",
          "type": "address"
        },
        {
          "indexed": false,
          "internalType": "bool",
          "name": "approved",
          "type": "bool"
        }
      ],
      "name": "ApprovalForAll",
      "type": "event"
    },
    {
      "anonymous": false,
      "inputs": [
        {
          "indexed": true,
          "internalType": "address",
          "name": "previousOwner",
          "type": "address"
        },
        {
          "indexed": true,
          "internalType": "address",
          "name": "newOwner",
          "type": "address"
        }
      ],
      "name": "OwnershipTransferred",
      "type": "event"
    },
    {
      "anonymous": false,
      "inputs": [
        {
          "indexed": false,
          "internalType": "address",
          "name": "account",
          "type": "address"
        }
      ],
      "name": "Paused",
      "type": "event"
    },
    {
      "anonymous": false,
      "inputs": [
        {
          "indexed": false,
          "internalType": "address",
          "name": "account",
          "type": "address"
        }
      ],
      "name": "RemovedAddressFromBlackList",
      "type": "event"
    },
    {
      "anonymous": false,
      "inputs": [
        {
          "indexed": false,
          "internalType": "address",
          "name": "account",
          "type": "address"
        }
      ],
      "name": "RemovedAddressFromWhiteList",
      "type": "event"
    },
    {
      "anonymous": false,
      "inputs": [
        {
          "indexed": false,
          "internalType": "uint256",
          "name": "tokenid",
          "type": "uint256"
        }
      ],
      "name": "RemovedTokenFromBlackList",
      "type": "event"
    },
    {
      "anonymous": false,
      "inputs": [
        {
          "indexed": false,
          "internalType": "uint256",
          "name": "tokenid",
          "type": "uint256"
        }
      ],
      "name": "RemovedTokenFromWhiteList",
      "type": "event"
    },
    {
      "anonymous": false,
      "inputs": [
        {
          "indexed": true,
          "internalType": "bytes32",
          "name": "role",
          "type": "bytes32"
        },
        {
          "indexed": true,
          "internalType": "bytes32",
          "name": "previousAdminRole",
          "type": "bytes32"
        },
        {
          "indexed": true,
          "internalType": "bytes32",
          "name": "newAdminRole",
          "type": "bytes32"
        }
      ],
      "name": "RoleAdminChanged",
      "type": "event"
    },
    {
      "anonymous": false,
      "inputs": [
        {
          "indexed": true,
          "internalType": "bytes32",
          "name": "role",
          "type": "bytes32"
        },
        {
          "indexed": true,
          "internalType": "address",
          "name": "account",
          "type": "address"
        },
        {
          "indexed": true,
          "internalType": "address",
          "name": "sender",
          "type": "address"
        }
      ],
      "name": "RoleGranted",
      "type": "event"
    },
    {
      "anonymous": false,
      "inputs": [
        {
          "indexed": true,
          "internalType": "bytes32",
          "name": "role",
          "type": "bytes32"
        },
        {
          "indexed": true,
          "internalType": "address",
          "name": "account",
          "type": "address"
        },
        {
          "indexed": true,
          "internalType": "address",
          "name": "sender",
          "type": "address"
        }
      ],
      "name": "RoleRevoked",
      "type": "event"
    },
    {
      "anonymous": false,
      "inputs": [
        {
          "indexed": true,
          "internalType": "uint256",
          "name": "tokenId",
          "type": "uint256"
        },
        {
          "indexed": true,
          "internalType": "address",
          "name": "account",
          "type": "address"
        },
        {
          "indexed": false,
          "internalType": "uint256",
          "name": "percentage",
          "type": "uint256"
        }
      ],
      "name": "RoyaltyAdded",
      "type": "event"
    },
    {
      "anonymous": false,
      "inputs": [
        {
          "indexed": false,
          "internalType": "uint256",
          "name": "tokenid",
          "type": "uint256"
        }
      ],
      "name": "TokenBlackListed",
      "type": "event"
    },
    {
      "anonymous": false,
      "inputs": [
        {
          "indexed": false,
          "internalType": "uint256",
          "name": "tokenid",
          "type": "uint256"
        }
      ],
      "name": "TokenWhiteListed",
      "type": "event"
    },
    {
      "anonymous": false,
      "inputs": [
        {
          "indexed": true,
          "internalType": "address",
          "name": "from",
          "type": "address"
        },
        {
          "indexed": true,
          "internalType": "address",
          "name": "to",
          "type": "address"
        },
        {
          "indexed": true,
          "internalType": "uint256",
          "name": "tokenId",
          "type": "uint256"
        }
      ],
      "name": "Transfer",
      "type": "event"
    },
    {
      "anonymous": false,
      "inputs": [
        {
          "indexed": false,
          "internalType": "address",
          "name": "account",
          "type": "address"
        }
      ],
      "name": "Unpaused",
      "type": "event"
    },
    {
      "inputs": [],
      "name": "ADMIN_ROLE",
      "outputs": [
        {
          "internalType": "bytes32",
          "name": "",
          "type": "bytes32"
        }
      ],
      "stateMutability": "view",
      "type": "function",
      "constant": true
    },
    {
      "inputs": [],
      "name": "DEFAULT_ADMIN_ROLE",
      "outputs": [
        {
          "internalType": "bytes32",
          "name": "",
          "type": "bytes32"
        }
      ],
      "stateMutability": "view",
      "type": "function",
      "constant": true
    },
    {
      "inputs": [],
      "name": "GOVERNOR_ROLE",
      "outputs": [
        {
          "internalType": "bytes32",
          "name": "",
          "type": "bytes32"
        }
      ],
      "stateMutability": "view",
      "type": "function",
      "constant": true
    },
    {
      "inputs": [],
      "name": "MINTER_ROLE",
      "outputs": [
        {
          "internalType": "bytes32",
          "name": "",
          "type": "bytes32"
        }
      ],
      "stateMutability": "view",
      "type": "function",
      "constant": true
    },
    {
      "inputs": [],
      "name": "PAUSER_ROLE",
      "outputs": [
        {
          "internalType": "bytes32",
          "name": "",
          "type": "bytes32"
        }
      ],
      "stateMutability": "view",
      "type": "function",
      "constant": true
    },
    {
      "inputs": [],
      "name": "Transferable",
      "outputs": [
        {
          "internalType": "bool",
          "name": "",
          "type": "bool"
        }
      ],
      "stateMutability": "view",
      "type": "function",
      "constant": true
    },
    {
      "inputs": [
        {
          "internalType": "address",
          "name": "to",
          "type": "address"
        },
        {
          "internalType": "uint256",
          "name": "tokenId",
          "type": "uint256"
        }
      ],
      "name": "approve",
      "outputs": [],
      "stateMutability": "nonpayable",
      "type": "function"
    },
    {
      "inputs": [
        {
          "internalType": "address",
          "name": "owner",
          "type": "address"
        }
      ],
      "name": "balanceOf",
      "outputs": [
        {
          "internalType": "uint256",
          "name": "",
          "type": "uint256"
        }
      ],
      "stateMutability": "view",
      "type": "function",
      "constant": true
    },
    {
      "inputs": [
        {
          "internalType": "address",
          "name": "",
          "type": "address"
        }
      ],
      "name": "blacklistedAddresses",
      "outputs": [
        {
          "internalType": "bool",
          "name": "",
          "type": "bool"
        }
      ],
      "stateMutability": "view",
      "type": "function",
      "constant": true
    },
    {
      "inputs": [
        {
          "internalType": "uint256",
          "name": "",
          "type": "uint256"
        }
      ],
      "name": "blacklistedTokens",
      "outputs": [
        {
          "internalType": "bool",
          "name": "",
          "type": "bool"
        }
      ],
      "stateMutability": "view",
      "type": "function",
      "constant": true
    },
    {
      "inputs": [
        {
          "internalType": "uint256",
          "name": "tokenId",
          "type": "uint256"
        }
      ],
      "name": "burn",
      "outputs": [],
      "stateMutability": "nonpayable",
      "type": "function"
    },
    {
      "inputs": [
        {
          "internalType": "uint256",
          "name": "tokenId",
          "type": "uint256"
        }
      ],
      "name": "getApproved",
      "outputs": [
        {
          "internalType": "address",
          "name": "",
          "type": "address"
        }
      ],
      "stateMutability": "view",
      "type": "function",
      "constant": true
    },
    {
      "inputs": [
        {
          "internalType": "bytes32",
          "name": "role",
          "type": "bytes32"
        }
      ],
      "name": "getRoleAdmin",
      "outputs": [
        {
          "internalType": "bytes32",
          "name": "",
          "type": "bytes32"
        }
      ],
      "stateMutability": "view",
      "type": "function",
      "constant": true
    },
    {
      "inputs": [
        {
          "internalType": "bytes32",
          "name": "role",
          "type": "bytes32"
        },
        {
          "internalType": "uint256",
          "name": "index",
          "type": "uint256"
        }
      ],
      "name": "getRoleMember",
      "outputs": [
        {
          "internalType": "address",
          "name": "",
          "type": "address"
        }
      ],
      "stateMutability": "view",
      "type": "function",
      "constant": true
    },
    {
      "inputs": [
        {
          "internalType": "bytes32",
          "name": "role",
          "type": "bytes32"
        }
      ],
      "name": "getRoleMemberCount",
      "outputs": [
        {
          "internalType": "uint256",
          "name": "",
          "type": "uint256"
        }
      ],
      "stateMutability": "view",
      "type": "function",
      "constant": true
    },
    {
      "inputs": [
        {
          "internalType": "bytes32",
          "name": "role",
          "type": "bytes32"
        },
        {
          "internalType": "address",
          "name": "account",
          "type": "address"
        }
      ],
      "name": "hasRole",
      "outputs": [
        {
          "internalType": "bool",
          "name": "",
          "type": "bool"
        }
      ],
      "stateMutability": "view",
      "type": "function",
      "constant": true
    },
    {
      "inputs": [
        {
          "internalType": "address",
          "name": "owner",
          "type": "address"
        },
        {
          "internalType": "address",
          "name": "operator",
          "type": "address"
        }
      ],
      "name": "isApprovedForAll",
      "outputs": [
        {
          "internalType": "bool",
          "name": "",
          "type": "bool"
        }
      ],
      "stateMutability": "view",
      "type": "function",
      "constant": true
    },
    {
      "inputs": [],
      "name": "name",
      "outputs": [
        {
          "internalType": "string",
          "name": "",
          "type": "string"
        }
      ],
      "stateMutability": "view",
      "type": "function",
      "constant": true
    },
    {
      "inputs": [],
      "name": "owner",
      "outputs": [
        {
          "internalType": "address",
          "name": "",
          "type": "address"
        }
      ],
      "stateMutability": "view",
      "type": "function",
      "constant": true
    },
    {
      "inputs": [
        {
          "internalType": "uint256",
          "name": "tokenId",
          "type": "uint256"
        }
      ],
      "name": "ownerOf",
      "outputs": [
        {
          "internalType": "address",
          "name": "",
          "type": "address"
        }
      ],
      "stateMutability": "view",
      "type": "function",
      "constant": true
    },
    {
      "inputs": [],
      "name": "paused",
      "outputs": [
        {
          "internalType": "bool",
          "name": "",
          "type": "bool"
        }
      ],
      "stateMutability": "view",
      "type": "function",
      "constant": true
    },
    {
      "inputs": [],
      "name": "renounceOwnership",
      "outputs": [],
      "stateMutability": "nonpayable",
      "type": "function"
    },
    {
      "inputs": [
        {
          "internalType": "bytes32",
          "name": "role",
          "type": "bytes32"
        },
        {
          "internalType": "address",
          "name": "account",
          "type": "address"
        }
      ],
      "name": "renounceRole",
      "outputs": [],
      "stateMutability": "nonpayable",
      "type": "function"
    },
    {
      "inputs": [
        {
          "internalType": "bytes32",
          "name": "role",
          "type": "bytes32"
        },
        {
          "internalType": "address",
          "name": "account",
          "type": "address"
        }
      ],
      "name": "revokeRole",
      "outputs": [],
      "stateMutability": "nonpayable",
      "type": "function"
    },
    {
      "inputs": [
        {
          "internalType": "address",
          "name": "from",
          "type": "address"
        },
        {
          "internalType": "address",
          "name": "to",
          "type": "address"
        },
        {
          "internalType": "uint256",
          "name": "tokenId",
          "type": "uint256"
        }
      ],
      "name": "safeTransferFrom",
      "outputs": [],
      "stateMutability": "nonpayable",
      "type": "function"
    },
    {
      "inputs": [
        {
          "internalType": "address",
          "name": "from",
          "type": "address"
        },
        {
          "internalType": "address",
          "name": "to",
          "type": "address"
        },
        {
          "internalType": "uint256",
          "name": "tokenId",
          "type": "uint256"
        },
        {
          "internalType": "bytes",
          "name": "_data",
          "type": "bytes"
        }
      ],
      "name": "safeTransferFrom",
      "outputs": [],
      "stateMutability": "nonpayable",
      "type": "function"
    },
    {
      "inputs": [
        {
          "internalType": "address",
          "name": "operator",
          "type": "address"
        },
        {
          "internalType": "bool",
          "name": "approved",
          "type": "bool"
        }
      ],
      "name": "setApprovalForAll",
      "outputs": [],
      "stateMutability": "nonpayable",
      "type": "function"
    },
    {
      "inputs": [],
      "name": "symbol",
      "outputs": [
        {
          "internalType": "string",
          "name": "",
          "type": "string"
        }
      ],
      "stateMutability": "view",
      "type": "function",
      "constant": true
    },
    {
      "inputs": [
        {
          "internalType": "uint256",
          "name": "index",
          "type": "uint256"
        }
      ],
      "name": "tokenByIndex",
      "outputs": [
        {
          "internalType": "uint256",
          "name": "",
          "type": "uint256"
        }
      ],
      "stateMutability": "view",
      "type": "function",
      "constant": true
    },
    {
      "inputs": [
        {
          "internalType": "address",
          "name": "owner",
          "type": "address"
        },
        {
          "internalType": "uint256",
          "name": "index",
          "type": "uint256"
        }
      ],
      "name": "tokenOfOwnerByIndex",
      "outputs": [
        {
          "internalType": "uint256",
          "name": "",
          "type": "uint256"
        }
      ],
      "stateMutability": "view",
      "type": "function",
      "constant": true
    },
    {
      "inputs": [],
      "name": "totalSupply",
      "outputs": [
        {
          "internalType": "uint256",
          "name": "",
          "type": "uint256"
        }
      ],
      "stateMutability": "view",
      "type": "function",
      "constant": true
    },
    {
      "inputs": [
        {
          "internalType": "address",
          "name": "from",
          "type": "address"
        },
        {
          "internalType": "address",
          "name": "to",
          "type": "address"
        },
        {
          "internalType": "uint256",
          "name": "tokenId",
          "type": "uint256"
        }
      ],
      "name": "transferFrom",
      "outputs": [],
      "stateMutability": "nonpayable",
      "type": "function"
    },
    {
      "inputs": [
        {
          "internalType": "address",
          "name": "",
          "type": "address"
        }
      ],
      "name": "whitelistedAddresses",
      "outputs": [
        {
          "internalType": "bool",
          "name": "",
          "type": "bool"
        }
      ],
      "stateMutability": "view",
      "type": "function",
      "constant": true
    },
    {
      "inputs": [
        {
          "internalType": "uint256",
          "name": "",
          "type": "uint256"
        }
      ],
      "name": "whitelistedTokens",
      "outputs": [
        {
          "internalType": "bool",
          "name": "",
          "type": "bool"
        }
      ],
      "stateMutability": "view",
      "type": "function",
      "constant": true
    },
    {
      "inputs": [
        {
          "internalType": "string",
          "name": "name",
          "type": "string"
        },
        {
          "internalType": "string",
          "name": "symbol",
          "type": "string"
        },
        {
          "internalType": "string",
          "name": "baseTokenURI",
          "type": "string"
        },
        {
          "internalType": "address",
          "name": "rootAdmin",
          "type": "address"
        },
        {
          "internalType": "bool",
          "name": "transferable",
          "type": "bool"
        }
      ],
      "name": "initialize",
      "outputs": [],
      "stateMutability": "nonpayable",
      "type": "function"
    },
    {
      "inputs": [
        {
          "internalType": "uint256",
          "name": "tokenId",
          "type": "uint256"
        }
      ],
      "name": "tokenURI",
      "outputs": [
        {
          "internalType": "string",
          "name": "",
          "type": "string"
        }
      ],
      "stateMutability": "view",
      "type": "function",
      "constant": true
    },
    {
      "inputs": [
        {
          "internalType": "address",
          "name": "newOwner",
          "type": "address"
        }
      ],
      "name": "transferOwnership",
      "outputs": [],
      "stateMutability": "nonpayable",
      "type": "function"
    },
    {
      "inputs": [
        {
          "internalType": "bytes32",
          "name": "role",
          "type": "bytes32"
        },
        {
          "internalType": "address",
          "name": "account",
          "type": "address"
        }
      ],
      "name": "grantRole",
      "outputs": [],
      "stateMutability": "nonpayable",
      "type": "function"
    },
    {
      "inputs": [
        {
          "internalType": "address",
          "name": "newAdmin",
          "type": "address"
        }
      ],
      "name": "changeRootAdmin",
      "outputs": [],
      "stateMutability": "nonpayable",
      "type": "function"
    },
    {
      "inputs": [
        {
          "internalType": "address",
          "name": "account",
          "type": "address"
        },
        {
          "internalType": "bytes32",
          "name": "role",
          "type": "bytes32"
        }
      ],
      "name": "addMinterOrPauser",
      "outputs": [],
      "stateMutability": "nonpayable",
      "type": "function"
    },
    {
      "inputs": [
        {
          "internalType": "address",
          "name": "receiver",
          "type": "address"
        },
        {
          "internalType": "uint256",
          "name": "collectibleId",
          "type": "uint256"
        },
        {
          "internalType": "string",
          "name": "IPFSHash",
          "type": "string"
        },
        {
          "components": [
            {
              "internalType": "address",
              "name": "account",
              "type": "address"
            },
            {
              "internalType": "uint256",
              "name": "percentage",
              "type": "uint256"
            }
          ],
          "internalType": "struct NFTMarketplaceUpgradableV2.Royalties",
          "name": "royalties",
          "type": "tuple"
        }
      ],
      "name": "mint",
      "outputs": [],
      "stateMutability": "nonpayable",
      "type": "function"
    },
    {
      "inputs": [
        {
          "internalType": "uint256",
          "name": "_tokenId",
          "type": "uint256"
        },
        {
          "internalType": "uint256",
          "name": "_salePrice",
          "type": "uint256"
        }
      ],
      "name": "royaltyInfo",
      "outputs": [
        {
          "internalType": "address",
          "name": "receiver",
          "type": "address"
        },
        {
          "internalType": "uint256",
          "name": "royaltyAmount",
          "type": "uint256"
        }
      ],
      "stateMutability": "view",
      "type": "function",
      "constant": true
    },
    {
      "inputs": [
        {
          "internalType": "bool",
          "name": "approval",
          "type": "bool"
        }
      ],
      "name": "setApprovalForOwner",
      "outputs": [],
      "stateMutability": "nonpayable",
      "type": "function"
    },
    {
      "inputs": [
        {
          "internalType": "bool",
          "name": "approval",
          "type": "bool"
        },
        {
          "internalType": "address",
          "name": "minterAccount",
          "type": "address"
        }
      ],
      "name": "setApprovalForMinter",
      "outputs": [],
      "stateMutability": "nonpayable",
      "type": "function"
    },
    {
      "inputs": [
        {
          "internalType": "address",
          "name": "account",
          "type": "address"
        }
      ],
      "name": "isApprovedForOwner",
      "outputs": [
        {
          "internalType": "bool",
          "name": "approval",
          "type": "bool"
        }
      ],
      "stateMutability": "view",
      "type": "function",
      "constant": true
    },
    {
      "inputs": [],
      "name": "pause",
      "outputs": [],
      "stateMutability": "nonpayable",
      "type": "function"
    },
    {
      "inputs": [],
      "name": "unpause",
      "outputs": [],
      "stateMutability": "nonpayable",
      "type": "function"
    },
    {
      "inputs": [
        {
          "internalType": "address",
          "name": "_address",
          "type": "address"
        }
      ],
      "name": "isAddressWhiteListed",
      "outputs": [
        {
          "internalType": "bool",
          "name": "",
          "type": "bool"
        }
      ],
      "stateMutability": "nonpayable",
      "type": "function"
    },
    {
      "inputs": [
        {
          "internalType": "address",
          "name": "_address",
          "type": "address"
        }
      ],
      "name": "isAddressBlackListed",
      "outputs": [
        {
          "internalType": "bool",
          "name": "",
          "type": "bool"
        }
      ],
      "stateMutability": "nonpayable",
      "type": "function"
    },
    {
      "inputs": [
        {
          "internalType": "uint256",
          "name": "_tokenid",
          "type": "uint256"
        }
      ],
      "name": "isTokenBlackListed",
      "outputs": [
        {
          "internalType": "bool",
          "name": "",
          "type": "bool"
        }
      ],
      "stateMutability": "nonpayable",
      "type": "function"
    },
    {
      "inputs": [
        {
          "internalType": "uint256",
          "name": "_tokenid",
          "type": "uint256"
        }
      ],
      "name": "isTokenWhiteListed",
      "outputs": [
        {
          "internalType": "bool",
          "name": "",
          "type": "bool"
        }
      ],
      "stateMutability": "nonpayable",
      "type": "function"
    },
    {
      "inputs": [],
      "name": "isTransferable",
      "outputs": [
        {
          "internalType": "bool",
          "name": "",
          "type": "bool"
        }
      ],
      "stateMutability": "nonpayable",
      "type": "function"
    },
    {
      "inputs": [
        {
          "internalType": "address",
          "name": "_address",
          "type": "address"
        }
      ],
      "name": "whiteListAddress",
      "outputs": [],
      "stateMutability": "nonpayable",
      "type": "function"
    },
    {
      "inputs": [
        {
          "internalType": "address",
          "name": "_address",
          "type": "address"
        }
      ],
      "name": "blackListAddress",
      "outputs": [],
      "stateMutability": "nonpayable",
      "type": "function"
    },
    {
      "inputs": [
        {
          "internalType": "uint256",
          "name": "_tokenid",
          "type": "uint256"
        }
      ],
      "name": "whiteListToken",
      "outputs": [],
      "stateMutability": "nonpayable",
      "type": "function"
    },
    {
      "inputs": [
        {
          "internalType": "uint256",
          "name": "_tokenid",
          "type": "uint256"
        }
      ],
      "name": "blackListToken",
      "outputs": [],
      "stateMutability": "nonpayable",
      "type": "function"
    },
    {
      "inputs": [
        {
          "internalType": "address",
          "name": "_address",
          "type": "address"
        }
      ],
      "name": "removeWhiteListAddress",
      "outputs": [],
      "stateMutability": "nonpayable",
      "type": "function"
    },
    {
      "inputs": [
        {
          "internalType": "address",
          "name": "_address",
          "type": "address"
        }
      ],
      "name": "removeBlackListAddress",
      "outputs": [],
      "stateMutability": "nonpayable",
      "type": "function"
    },
    {
      "inputs": [
        {
          "internalType": "uint256",
          "name": "_tokenid",
          "type": "uint256"
        }
      ],
      "name": "removeWhiteListToken",
      "outputs": [],
      "stateMutability": "nonpayable",
      "type": "function"
    },
    {
      "inputs": [
        {
          "internalType": "uint256",
          "name": "_tokenid",
          "type": "uint256"
        }
      ],
      "name": "removeBlackListToken",
      "outputs": [],
      "stateMutability": "nonpayable",
      "type": "function"
    },
    {
      "inputs": [
        {
          "internalType": "bool",
          "name": "_transferable",
          "type": "bool"
        }
      ],
      "name": "setTransferable",
      "outputs": [],
      "stateMutability": "nonpayable",
      "type": "function"
    },
    {
      "inputs": [
        {
          "internalType": "bytes4",
          "name": "interfaceId",
          "type": "bytes4"
        }
      ],
      "name": "supportsInterface",
      "outputs": [
        {
          "internalType": "bool",
          "name": "",
          "type": "bool"
        }
      ],
      "stateMutability": "view",
      "type": "function",
      "constant": true
    }
  ],
  "bytecode": "0x608060405234801561001057600080fd5b50614870806100206000396000f3fe608060405234801561001057600080fd5b50600436106103d7576000357c01000000000000000000000000000000000000000000000000000000009004806370a0823111610211578063b88d4fde11610137578063d5391393116100ca578063e63ab1e911610099578063e63ab1e914610884578063e985e9c514610899578063f2fde38b146108ac578063f7e136ba146108bf576103d7565b8063d539139314610825578063d547741f1461083a578063d5749d421461084d578063d96e83d614610871576103d7565b8063cc3961b011610106578063cc3961b0146107d7578063ccc57490146107ea578063ce114c25146107ff578063cf52a7b214610812576103d7565b8063b88d4fde1461078b578063c6b58ccb1461079e578063c87b56dd146107b1578063ca15c873146107c4576103d7565b80639010d07c116101af578063a217fddf1161017e578063a217fddf1461074a578063a22cb46514610752578063ac7e0d8a14610765578063ad23de6314610778576103d7565b80639010d07c1461070957806391d148541461071c57806395d89b411461072f5780639cd2370714610737576103d7565b806375b238fc116101eb57806375b238fc146106c85780638456cb59146106dd5780638670a86e146106e55780638da5cb5b146106f8576103d7565b806370a082311461069a578063715018a6146106ad5780637536fad5146106b5576103d7565b80632a55205a1161030157806342842e0e11610294578063578efe2d11610263578063578efe2d146106555780635c975abb146106685780636352211e1461067457806366eb463f14610687576103d7565b806342842e0e1461060957806342966c681461061c57806345e1f7431461062f5780634f6ccce714610642576103d7565b806336568abe116102d057806336568abe146105c857806336d318d2146105db5780633b0e0133146105ee5780633f4ba83a14610601576103d7565b80632a55205a1461055d5780632f2ff15d1461058f5780632f745c59146105a257806336461704146105b5576103d7565b806318160ddd1161037957806323b872dd1161034857806323b872dd146104f0578063248a9ca31461050357806328c56b991461052657806328f7ed231461054a576103d7565b806318160ddd146104a35780631bf9def0146104b65780632121dc75146104c45780632154bc44146104cc576103d7565b806306fdde03116103b557806306fdde031461043b578063081812fc14610450578063095ea7b31461047b5780631650819414610490576103d7565b806301ffc9a7146103dc578063066de93d1461040457806306c933d814610417575b600080fd5b6103ef6103ea366004614184565b6108d2565b60405190151581526020015b60405180910390f35b6103ef610412366004614127565b61091f565b6103ef610425366004613f11565b6101f56020526000908152604090205460ff1681565b610443610937565b6040516103fb9190614412565b61046361045e366004614127565b6109c9565b604051600160a060020a0390911681526020016103fb565b61048e610489366004614056565b610a6a565b005b61048e61049e3660046140f2565b610ba2565b61012f545b6040519081526020016103fb565b6101f9546103ef9060ff1681565b6103ef610bcd565b6103ef6104da366004614127565b6101f76020526000908152604090205460ff1681565b61048e6104fe366004613f65565b610be1565b6104a8610511366004614127565b60009081526065602052604090206001015490565b6103ef610534366004614127565b6101f86020526000908152604090205460ff1681565b61048e6105583660046141bc565b610c16565b61057061056b366004614163565b610c9d565b60408051600160a060020a0390931683526020830191909152016103fb565b61048e61059d36600461413f565b610d44565b6104a86105b0366004614056565b610df1565b61048e6105c3366004614056565b610ea0565b61048e6105d636600461413f565b610f54565b61048e6105e9366004614127565b610fdf565b61048e6105fc366004613f11565b611055565b61048e6110c8565b61048e610617366004613f65565b61116c565b61048e61062a366004614127565b611187565b6103ef61063d366004613f11565b61120e565b6104a8610650366004614127565b611230565b61048e610663366004614127565b6112ea565b6101915460ff166103ef565b610463610682366004614127565b61135d565b61048e610695366004613f11565b6113eb565b6104a86106a8366004613f11565b611438565b61048e6114d5565b61048e6106c336600461410c565b61150c565b6104a860008051602061481b83398151915281565b61048e61157d565b6103ef6106f3366004613f11565b61161f565b60c954600160a060020a0316610463565b610463610717366004614163565b61164e565b6103ef61072a36600461413f565b611666565b610443611691565b61048e6107453660046140f2565b6116a0565b6104a8600081565b61048e610760366004614022565b61171e565b6103ef610773366004614127565b611729565b6103ef610786366004613f11565b611741565b61048e610799366004613fa5565b611763565b61048e6107ac366004614127565b61179e565b6104436107bf366004614127565b611811565b6104a86107d2366004614127565b6119b5565b61048e6107e5366004614081565b6119cc565b6104a86000805160206147bb83398151915281565b61048e61080d366004613f11565b611a84565b61048e610820366004613f11565b611af7565b6104a86000805160206147fb83398151915281565b61048e61084836600461413f565b611b6a565b6103ef61085b366004613f11565b6101f66020526000908152604090205460ff1681565b61048e61087f366004613f11565b611b91565b6104a86000805160206147db83398151915281565b6103ef6108a7366004613f2d565b611c04565b61048e6108ba366004613f11565b611c33565b61048e6108cd366004614127565b611c7f565b6000600160e060020a031982167f2a55205a00000000000000000000000000000000000000000000000000000000141561090e5750600161091a565b61091782611cf2565b90505b919050565b60008181526101f8602052604081205460ff16610917565b606060fb8054610946906146aa565b80601f0160208091040260200160405190810160405280929190818152602001828054610972906146aa565b80156109bf5780601f10610994576101008083540402835291602001916109bf565b820191906000526020600020905b8154815290600101906020018083116109a257829003601f168201915b5050505050905090565b60006109d482611d30565b610a4e5760405160e560020a62461bcd02815260206004820152602c60248201527f4552433732313a20617070726f76656420717565727920666f72206e6f6e657860448201527f697374656e7420746f6b656e000000000000000000000000000000000000000060648201526084015b60405180910390fd5b50600090815260ff6020526040902054600160a060020a031690565b6000610a758261135d565b905080600160a060020a031683600160a060020a03161415610b025760405160e560020a62461bcd02815260206004820152602160248201527f4552433732313a20617070726f76616c20746f2063757272656e74206f776e6560448201527f72000000000000000000000000000000000000000000000000000000000000006064820152608401610a45565b33600160a060020a0382161480610b1e5750610b1e81336108a7565b610b935760405160e560020a62461bcd02815260206004820152603860248201527f4552433732313a20617070726f76652063616c6c6572206973206e6f74206f7760448201527f6e6572206e6f7220617070726f76656420666f7220616c6c00000000000000006064820152608401610a45565b610b9d8383611d4d565b505050565b6000610bbd60008051602061481b833981519152600061164e565b9050610bc9818361171e565b5050565b6000610bdc6101f95460ff1690565b905090565b610bec335b82611dc8565b610c0b5760405160e560020a62461bcd028152600401610a459061454b565b610b9d838383611ea6565b600054610100900460ff16610c315760005460ff1615610c35565b303b155b610c545760405160e560020a62461bcd028152600401610a4590614482565b600054610100900460ff16158015610c76576000805461ffff19166101011790555b610c838686868686612091565b8015610c95576000805461ff00191690555b505050505050565b600080610ca984611d30565b610cf85760405160e560020a62461bcd02815260206004820152601f60248201527f717565727920666f72206e6f6e206e6f6e6578697374656e7420746f6b656e006044820152606401610a45565b600084815261025f602052604090206001015461271090610d199085614631565b610d23919061461d565b600094855261025f602052604090942054600160a060020a03169492505050565b60008051602061481b833981519152821415610de757610d7160008051602061481b8339815191526119b5565b15610de75760405160e560020a62461bcd02815260206004820152602760248201527f65786163746c79206f6e6520616464726573732063616e20686176652061646d60448201527f696e20726f6c65000000000000000000000000000000000000000000000000006064820152608401610a45565b610bc98282612158565b6000610dfc83611438565b8210610e735760405160e560020a62461bcd02815260206004820152602b60248201527f455243373231456e756d657261626c653a206f776e657220696e646578206f7560448201527f74206f6620626f756e64730000000000000000000000000000000000000000006064820152608401610a45565b50600160a060020a038216600090815261012d602090815260408083208484529091529020545b92915050565b610eb860008051602061481b8339815191523361072a565b80610ecd575060c954600160a060020a031633145b610f1c5760405160e560020a62461bcd02815260206004820152601460248201527f5265737472696374656420746f2061646d696e2e0000000000000000000000006044820152606401610a45565b6000805160206147fb833981519152811480610f4557506000805160206147db83398151915281145b15610bc957610bc9818361217e565b600160a060020a0381163314610fd55760405160e560020a62461bcd02815260206004820152602f60248201527f416363657373436f6e74726f6c3a2063616e206f6e6c792072656e6f756e636560448201527f20726f6c657320666f722073656c6600000000000000000000000000000000006064820152608401610a45565b610bc98282612188565b610ff760008051602061481b8339815191523361072a565b8061101557506110156000805160206147bb8339815191523361072a565b8061102a575060c954600160a060020a031633145b6110495760405160e560020a62461bcd028152600401610a4590614514565b611052816121aa565b50565b61106d60008051602061481b8339815191523361072a565b8061108b575061108b6000805160206147bb8339815191523361072a565b806110a0575060c954600160a060020a031633145b6110bf5760405160e560020a62461bcd028152600401610a4590614514565b61105281612264565b6110e060008051602061481b8339815191523361072a565b806110fe57506110fe6000805160206147db8339815191523361072a565b80611113575060c954600160a060020a031633145b6111625760405160e560020a62461bcd02815260206004820152601560248201527f5265737472696374656420746f207061757365722e00000000000000000000006044820152606401610a45565b61116a6122b9565b565b610b9d83838360405180602001604052806000815250611763565b61119033610be6565b6112055760405160e560020a62461bcd02815260206004820152603060248201527f4552433732314275726e61626c653a2063616c6c6572206973206e6f74206f7760448201527f6e6572206e6f7220617070726f766564000000000000000000000000000000006064820152608401610a45565b6110528161235a565b600160a060020a03811660009081526101f6602052604081205460ff16610917565b600061123c61012f5490565b82106112b35760405160e560020a62461bcd02815260206004820152602c60248201527f455243373231456e756d657261626c653a20676c6f62616c20696e646578206f60448201527f7574206f6620626f756e647300000000000000000000000000000000000000006064820152608401610a45565b61012f82815481106112d85760e060020a634e487b7102600052603260045260246000fd5b90600052602060002001549050919050565b61130260008051602061481b8339815191523361072a565b8061132057506113206000805160206147bb8339815191523361072a565b80611335575060c954600160a060020a031633145b6113545760405160e560020a62461bcd028152600401610a4590614514565b6110528161240f565b600081815260fd6020526040812054600160a060020a0316806109175760405160e560020a62461bcd02815260206004820152602960248201527f4552433732313a206f776e657220717565727920666f72206e6f6e657869737460448201527f656e7420746f6b656e00000000000000000000000000000000000000000000006064820152608401610a45565b600061140660008051602061481b833981519152600061164e565b905061142060008051602061481b83398151915282611b6a565b610bc960008051602061481b83398151915283610d44565b6000600160a060020a0382166114b95760405160e560020a62461bcd02815260206004820152602a60248201527f4552433732313a2062616c616e636520717565727920666f7220746865207a6560448201527f726f2061646472657373000000000000000000000000000000000000000000006064820152608401610a45565b50600160a060020a0316600090815260fe602052604090205490565b60c954600160a060020a031633146115025760405160e560020a62461bcd028152600401610a45906144df565b61116a6000612458565b6115246000805160206147fb83398151915282611666565b6115735760405160e560020a62461bcd02815260206004820152601460248201527f6e6f742061206d696e74657220616464726573730000000000000000000000006044820152606401610a45565b610bc9818361171e565b61159560008051602061481b8339815191523361072a565b806115b357506115b36000805160206147db8339815191523361072a565b806115c8575060c954600160a060020a031633145b6116175760405160e560020a62461bcd02815260206004820152601560248201527f5265737472696374656420746f207061757365722e00000000000000000000006044820152606401610a45565b61116a6124b7565b60008061163b60008051602061481b833981519152600061164e565b90506116478382611c04565b9392505050565b60008281526097602052604081206116479083612544565b6000918252606560209081526040808420600160a060020a0393909316845291905290205460ff1690565b606060fc8054610946906146aa565b6116b860008051602061481b8339815191523361072a565b806116d657506116d66000805160206147bb8339815191523361072a565b806116eb575060c954600160a060020a031633145b61170a5760405160e560020a62461bcd028152600401610a4590614514565b6101f9805460ff1916821515179055611052565b610bc9338383612564565b60008181526101f7602052604081205460ff16610917565b600160a060020a03811660009081526101f5602052604081205460ff16610917565b61176d3383611dc8565b61178c5760405160e560020a62461bcd028152600401610a459061454b565b61179884848484612637565b50505050565b6117b660008051602061481b8339815191523361072a565b806117d457506117d46000805160206147bb8339815191523361072a565b806117e9575060c954600160a060020a031633145b6118085760405160e560020a62461bcd028152600401610a4590614514565b6110528161266d565b606061181c82611d30565b6118915760405160e560020a62461bcd02815260206004820152602f60248201527f4552433732314d657461646174613a2055524920717565727920666f72206e6f60448201527f6e6578697374656e7420746f6b656e00000000000000000000000000000000006064820152608401610a45565b600082815261025e6020526040812080546118ab906146aa565b80601f01602080910402602001604051908101604052809291908181526020018280546118d7906146aa565b80156119245780601f106118f957610100808354040283529160200191611924565b820191906000526020600020905b81548152906001019060200180831161190757829003601f168201915b5050505050905061025d8054611939906146aa565b1515905061194857905061091a565b600061025d8054611958906146aa565b905011156119af57805161199a5761025d611972846126b9565b6040516020016119839291906142ac565b60405160208183030381529060405291505061091a565b61025d816040516020016119839291906142ac565b50919050565b600081815260976020526040812061091790612815565b6119e460008051602061481b8339815191523361072a565b80611a025750611a026000805160206147fb8339815191523361072a565b80611a17575060c954600160a060020a031633145b611a665760405160e560020a62461bcd02815260206004820152601560248201527f5265737472696374656420746f206d696e7465722e00000000000000000000006044820152606401610a45565b611a70848461281f565b611a7a8383612972565b6117988382612a19565b611a9c60008051602061481b8339815191523361072a565b80611aba5750611aba6000805160206147bb8339815191523361072a565b80611acf575060c954600160a060020a031633145b611aee5760405160e560020a62461bcd028152600401610a4590614514565b61105281612b2b565b611b0f60008051602061481b8339815191523361072a565b80611b2d5750611b2d6000805160206147bb8339815191523361072a565b80611b42575060c954600160a060020a031633145b611b615760405160e560020a62461bcd028152600401610a4590614514565b61105281612b7d565b600082815260656020526040902060010154611b8781335b612c3f565b610b9d8383612188565b611ba960008051602061481b8339815191523361072a565b80611bc75750611bc76000805160206147bb8339815191523361072a565b80611bdc575060c954600160a060020a031633145b611bfb5760405160e560020a62461bcd028152600401610a4590614514565b61105281612ca6565b600160a060020a0391821660009081526101006020908152604080832093909416825291909152205460ff1690565b60c954600160a060020a03163314611c605760405160e560020a62461bcd028152600401610a45906144df565b611c6981612d8a565b611c7460008261217e565b6110526000336105d6565b611c9760008051602061481b8339815191523361072a565b80611cb55750611cb56000805160206147bb8339815191523361072a565b80611cca575060c954600160a060020a031633145b611ce95760405160e560020a62461bcd028152600401610a4590614514565b61105281612e3f565b6000600160e060020a031982167f780e9d63000000000000000000000000000000000000000000000000000000001480610917575061091782612eea565b600090815260fd6020526040902054600160a060020a0316151590565b600081815260ff60205260409020805473ffffffffffffffffffffffffffffffffffffffff1916600160a060020a0384169081179091558190611d8f8261135d565b600160a060020a03167f8c5be1e5ebec7d5bd14f71427d1e84f3dd0314c0f7b2291e5b200ac8c7c3b92560405160405180910390a45050565b6000611dd382611d30565b611e485760405160e560020a62461bcd02815260206004820152602c60248201527f4552433732313a206f70657261746f7220717565727920666f72206e6f6e657860448201527f697374656e7420746f6b656e00000000000000000000000000000000000000006064820152608401610a45565b6000611e538361135d565b905080600160a060020a031684600160a060020a03161480611e8e575083600160a060020a0316611e83846109c9565b600160a060020a0316145b80611e9e5750611e9e8185611c04565b949350505050565b82600160a060020a0316611eb98261135d565b600160a060020a031614611f385760405160e560020a62461bcd02815260206004820152602560248201527f4552433732313a207472616e736665722066726f6d20696e636f72726563742060448201527f6f776e65720000000000000000000000000000000000000000000000000000006064820152608401610a45565b600160a060020a038216611fb65760405160e560020a62461bcd028152602060048201526024808201527f4552433732313a207472616e7366657220746f20746865207a65726f2061646460448201527f72657373000000000000000000000000000000000000000000000000000000006064820152608401610a45565b611fc1838383612f5c565b611fcc600082611d4d565b600160a060020a038316600090815260fe60205260408120805460019290611ff5908490614650565b9091555050600160a060020a038216600090815260fe60205260408120805460019290612023908490614605565b9091555050600081815260fd6020526040808220805473ffffffffffffffffffffffffffffffffffffffff1916600160a060020a0386811691821790925591518493918716917fddf252ad1be2c89b69c2b068fc378daa952ba7f163c4a11628f55a4df523b3ef91a4610b9d565b600054610100900460ff166120ac5760005460ff16156120b0565b303b155b6120cf5760405160e560020a62461bcd028152600401610a4590614482565b600054610100900460ff161580156120f1576000805461ffff19166101011790555b6120f9612f67565b612101612f67565b612109612f67565b612111612f67565b61211b8686612f91565b612123612f67565b61212b612fe2565b612133612f67565b61213b613015565b612143612f67565b61214f8686868661304c565b610c8382613149565b6000828152606560205260409020600101546121748133611b82565b610b9d8383613173565b610bc98282613173565b6121928282613195565b6000828152609760205260409020610b9d90826131fc565b60008181526101f8602052604090205460ff161561220d5760405160e560020a62461bcd02815260206004820152601960248201527f596f757220546f6b656e20697320426c61636b6c6973746564000000000000006044820152606401610a45565b60008181526101f7602052604090819020805460ff19166001179055517f4a07f55b4671e917d1bafcd1f194d4f5701386844390a5a4568fa4b67bc572fd906122599083815260200190565b60405180910390a150565b600160a060020a03811660008181526101f66020908152604091829020805460ff1916600117905590519182527f308f1b8482507c1b7d939a009b858d9264f4d02adac33b8198bb6fddb8531a7c9101612259565b6101915460ff1661230f5760405160e560020a62461bcd02815260206004820152601460248201527f5061757361626c653a206e6f74207061757365640000000000000000000000006044820152606401610a45565b610191805460ff191690557f5db9ee0a495bf2e6ff9c91a7834c1ba4fdd244a5e8aa4e537bd38aeae4b073aa335b604051600160a060020a03909116815260200160405180910390a1565b60006123658261135d565b905061237381600084612f5c565b61237e600083611d4d565b600160a060020a038116600090815260fe602052604081208054600192906123a7908490614650565b9091555050600082815260fd6020526040808220805473ffffffffffffffffffffffffffffffffffffffff1916905551839190600160a060020a038416907fddf252ad1be2c89b69c2b068fc378daa952ba7f163c4a11628f55a4df523b3ef908390a4610bc9565b60008181526101f7602052604090819020805460ff19169055517f2111c37417c358776bb4d6ed83935974fe6796deb2b9f82cb775989f01f1ca43906122599083815260200190565b60c98054600160a060020a0383811673ffffffffffffffffffffffffffffffffffffffff19831681179093556040519116919082907f8be0079c531659141344cd1fd0a4f28419497f9722a3daafe3b4186f6b6457e090600090a35050565b6101915460ff161561250e5760405160e560020a62461bcd02815260206004820152601060248201527f5061757361626c653a20706175736564000000000000000000000000000000006044820152606401610a45565b610191805460ff191660011790557f62e78cea01bee320cd4e420270b5ea74000d11b0c9f74754ebdbfc544b05a25861233d3390565b60006116478383613211565b6101f9805460ff1916911515919091179055565b81600160a060020a031683600160a060020a031614156125c95760405160e560020a62461bcd02815260206004820152601960248201527f4552433732313a20617070726f766520746f2063616c6c6572000000000000006044820152606401610a45565b600160a060020a0383811660008181526101006020908152604080832094871680845294825291829020805460ff191686151590811790915591519182527f17307eab39ab6107e8899845ad3d59bd9653f200f220920489ca2b5937696c31910160405180910390a3505050565b612642848484611ea6565b61264e8484848461324c565b6117985760405160e560020a62461bcd028152600401610a4590614425565b60008181526101f8602052604090819020805460ff19166001179055517f9c672ada4af2d406bfce7b4b2caea810f52943448bf3c4b141d886b048d7558f906122599083815260200190565b6060816126fa575060408051808201909152600181527f3000000000000000000000000000000000000000000000000000000000000000602082015261091a565b8160005b8115612724578061270e816146e2565b915061271d9050600a8361461d565b91506126fe565b60008167ffffffffffffffff8111156127505760e060020a634e487b7102600052604160045260246000fd5b6040519080825280601f01601f19166020018201604052801561277a576020820181803683370190505b5090505b8415611e9e5761278f600183614650565b915061279c600a866146fd565b6127a7906030614605565b7f0100000000000000000000000000000000000000000000000000000000000000028183815181106127ec5760e060020a634e487b7102600052603260045260246000fd5b6020010190600160f860020a031916908160001a90535061280e600a8661461d565b945061277e565b6000610917825490565b600160a060020a0382166128785760405160e560020a62461bcd02815260206004820181905260248201527f4552433732313a206d696e7420746f20746865207a65726f20616464726573736044820152606401610a45565b61288181611d30565b156128d15760405160e560020a62461bcd02815260206004820152601c60248201527f4552433732313a20746f6b656e20616c7265616479206d696e746564000000006044820152606401610a45565b6128dd60008383612f5c565b600160a060020a038216600090815260fe60205260408120805460019290612906908490614605565b9091555050600081815260fd6020526040808220805473ffffffffffffffffffffffffffffffffffffffff1916600160a060020a03861690811790915590518392907fddf252ad1be2c89b69c2b068fc378daa952ba7f163c4a11628f55a4df523b3ef908290a4610bc9565b61297b82611d30565b6129f05760405160e560020a62461bcd02815260206004820152602c60248201527f4552433732314d657461646174613a2055524920736574206f66206e6f6e657860448201527f697374656e7420746f6b656e00000000000000000000000000000000000000006064820152608401610a45565b8051819015610b9d57600083815261025e60209081526040909120835161179892850190613dd3565b6107d081602001351115612a985760405160e560020a62461bcd02815260206004820152603660248201527f6578636565647320726f79616c747920636f6c6c656374697665206d6178207660448201527f616c7565206f66207477656e74792070657263656e74000000000000000000006064820152608401610a45565b6000612aa76020830183613f11565b600160a060020a031614610bc957600082815261025f602052604090208190612ad0828261475c565b50612ae090506020820182613f11565b600160a060020a0316827f1518a753ce2ba621ee225961119ac7c1dc5ed445928dc2a37e81108a24fccdf18360200135604051612b1f91815260200190565b60405180910390a35050565b600160a060020a03811660008181526101f56020908152604091829020805460ff1916905590519182527f03861b7848217ad38e5f44e4f9f80d3e692441cb3534bbab7662dacda9c6078a9101612259565b600160a060020a03811660009081526101f6602052604090205460ff1615612bea5760405160e560020a62461bcd02815260206004820152601b60248201527f596f7572204164647265737320697320426c61636b6c697374656400000000006044820152606401610a45565b600160a060020a03811660008181526101f56020908152604091829020805460ff1916600117905590519182527f899dfda8e2842707b0e6431b5d8606f841049020fe311e5150d11a23a53ac9f19101612259565b612c498282611666565b610bc957612c6181600160a060020a0316601461338e565b612c6c83602061338e565b604051602001612c7d929190614355565b60408051601f198184030181529082905260e560020a62461bcd028252610a4591600401614412565b600160a060020a03811660009081526101f6602052604090205460ff16612d385760405160e560020a62461bcd02815260206004820152602860248201527f616464726573734572726f72203a61646472657373206973206e6f7420626c6160448201527f636b6c69737465640000000000000000000000000000000000000000000000006064820152608401610a45565b600160a060020a03811660008181526101f66020908152604091829020805460ff1916905590519182527fac91c5dfdc2c6d0f740b77f86c14a1f4c717d8eea7c61480fcc784edac92b98c9101612259565b60c954600160a060020a03163314612db75760405160e560020a62461bcd028152600401610a45906144df565b600160a060020a038116612e365760405160e560020a62461bcd02815260206004820152602660248201527f4f776e61626c653a206e6577206f776e657220697320746865207a65726f206160448201527f64647265737300000000000000000000000000000000000000000000000000006064820152608401610a45565b61105281612458565b60008181526101f8602052604090205460ff16612ea15760405160e560020a62461bcd02815260206004820181905260248201527f4572726f72203a20546f6b656e206973206e6f7420626c61636b6c69737465646044820152606401610a45565b60008181526101f8602052604090819020805460ff19169055517faff5450db3bb72eac0f6c748f3330d7155bf08d51921e598ce8b0f236b6d9d99906122599083815260200190565b6000600160e060020a031982167f80ac58cd000000000000000000000000000000000000000000000000000000001480612f4d5750600160e060020a031982167f5b5e139f00000000000000000000000000000000000000000000000000000000145b806109175750610917826135e5565b610b9d838383613623565b600054610100900460ff1661116a5760405160e560020a62461bcd028152600401610a45906145a8565b600054610100900460ff16612fbb5760405160e560020a62461bcd028152600401610a45906145a8565b8151612fce9060fb906020850190613dd3565b508051610b9d9060fc906020840190613dd3565b600054610100900460ff1661300c5760405160e560020a62461bcd028152600401610a45906145a8565b61116a33612458565b600054610100900460ff1661303f5760405160e560020a62461bcd028152600401610a45906145a8565b610191805460ff19169055565b600054610100900460ff166130675760005460ff161561306b565b303b155b61308a5760405160e560020a62461bcd028152600401610a4590614482565b600054610100900460ff161580156130ac576000805461ffff19166101011790555b82516130c09061025d906020860190613dd3565b506130cc60003361217e565b6130e460008051602061481b8339815191528361217e565b61310a6000805160206147fb83398151915260008051602061481b8339815191526137fa565b6131306000805160206147db83398151915260008051602061481b8339815191526137fa565b8015613142576000805461ff00191690555b5050505050565b600054610100900460ff166125505760405160e560020a62461bcd028152600401610a45906145a8565b61317d8282613845565b6000828152609760205260409020610b9d90826138cb565b61319f8282611666565b15610bc9576000828152606560209081526040808320600160a060020a0385168085529252808320805460ff1916905551339285917ff6391f5c32d9c69d2a47ea670b442974b53935d1edc7fd64eb21e047a839171b9190a45050565b600061164783600160a060020a0384166138e0565b60008260000182815481106132395760e060020a634e487b7102600052603260045260246000fd5b9060005260206000200154905092915050565b6000600160a060020a0384163b15613383576040517f150b7a02000000000000000000000000000000000000000000000000000000008152600160a060020a0385169063150b7a02906132a99033908990889088906004016143d6565b602060405180830381600087803b1580156132c357600080fd5b505af19250505080156132f3575060408051601f3d908101601f191682019092526132f0918101906141a0565b60015b613350573d808015613321576040519150601f19603f3d011682016040523d82523d6000602084013e613326565b606091505b5080516133485760405160e560020a62461bcd028152600401610a4590614425565b805181602001fd5b600160e060020a0319167f150b7a0200000000000000000000000000000000000000000000000000000000149050611e9e565b506001949350505050565b6060600061339d836002614631565b6133a8906002614605565b67ffffffffffffffff8111156133d15760e060020a634e487b7102600052604160045260246000fd5b6040519080825280601f01601f1916602001820160405280156133fb576020820181803683370190505b5090507f3000000000000000000000000000000000000000000000000000000000000000816000815181106134435760e060020a634e487b7102600052603260045260246000fd5b6020010190600160f860020a031916908160001a9053507f78000000000000000000000000000000000000000000000000000000000000008160018151811061349f5760e060020a634e487b7102600052603260045260246000fd5b6020010190600160f860020a031916908160001a90535060006134c3846002614631565b6134ce906001614605565b90505b6001811115613593577f303132333435363738396162636465660000000000000000000000000000000085600f16601081106135205760e060020a634e487b7102600052603260045260246000fd5b1a7f0100000000000000000000000000000000000000000000000000000000000000028282815181106135665760e060020a634e487b7102600052603260045260246000fd5b6020010190600160f860020a031916908160001a90535060109094049361358c81614693565b90506134d1565b5083156116475760405160e560020a62461bcd02815260206004820181905260248201527f537472696e67733a20686578206c656e67746820696e73756666696369656e746044820152606401610a45565b6000600160e060020a031982167f5a05180f000000000000000000000000000000000000000000000000000000001480610917575061091782613a06565b600160a060020a03831660009081526101f5602052604090205460ff168061365a575060008181526101f7602052604090205460ff165b8061366857506101f95460ff165b6137035760405160e560020a62461bcd02815260206004820152605560248201527f4572726f723a20596f75722041646472657373206f7220546f6b65732061726560448201527f206e6f74205768697465204c69737465642c204f7220796f757220546f6b656e60648201527f206973206e6f74205472616e7366657262616c652e0000000000000000000000608482015260a401610a45565b60008181526101f8602052604090205460ff16156137665760405160e560020a62461bcd02815260206004820152601560248201527f546f6b656e20697320426c61636b204c697374656400000000000000000000006044820152606401610a45565b3360009081526101f5602052604090205460ff166137ef5760405160e560020a62461bcd02815260206004820152602860248201527f4661696c65643a20596f75722041646472657373206973206e6f74205768697460448201527f654c69737465642e0000000000000000000000000000000000000000000000006064820152608401610a45565b610b9d838383613a6d565b600082815260656020526040808220600101805490849055905190918391839186917fbd79b86ffe0ab8e8776151514217cd7cacd52c909f66475c3af44e129f0b00ff9190a4505050565b61384f8282611666565b610bc9576000828152606560209081526040808320600160a060020a03851684529091529020805460ff191660011790556138873390565b600160a060020a031681600160a060020a0316837f2f8788117e7eff1d82e926ec794901d17c78024a50270940304540a733656f0d60405160405180910390a45050565b600061164783600160a060020a038416613af5565b600081815260018301602052604081205480156139fc576000613904600183614650565b855490915060009061391890600190614650565b905081811461399f5760008660000182815481106139495760e060020a634e487b7102600052603260045260246000fd5b906000526020600020015490508087600001848154811061397d5760e060020a634e487b7102600052603260045260246000fd5b6000918252602080832090910192909255918252600188019052604090208390555b85548690806139c15760e060020a634e487b7102600052603160045260246000fd5b600190038181906000526020600020016000905590558560010160008681526020019081526020016000206000905560019350505050610e9a565b6000915050610e9a565b6000600160e060020a031982167f7965db0b00000000000000000000000000000000000000000000000000000000148061091757507f01ffc9a700000000000000000000000000000000000000000000000000000000600160e060020a0319831614610917565b613a78838383613b44565b6101915460ff1615610b9d5760405160e560020a62461bcd02815260206004820152602b60248201527f4552433732315061757361626c653a20746f6b656e207472616e73666572207760448201527f68696c65207061757365640000000000000000000000000000000000000000006064820152608401610a45565b6000818152600183016020526040812054613b3c57508154600181810184556000848152602080822090930184905584548482528286019093526040902091909155610e9a565b506000610e9a565b600160a060020a038316613ba157613b9c8161012f8054600083815261013060205260408120829055600182018355919091527f232da9e50dad2971456a78fb5cd6ff6b75019984d6e918139ce990999420f9790155565b613bc4565b81600160a060020a031683600160a060020a031614613bc457613bc48382613c03565b600160a060020a038216613be057613bdb81613ca5565b610b9d565b82600160a060020a031682600160a060020a031614610b9d57610b9d8282613d8d565b60006001613c1084611438565b613c1a9190614650565b600083815261012e6020526040902054909150808214613c7057600160a060020a038416600090815261012d60209081526040808320858452825280832054848452818420819055835261012e90915290208190555b50600091825261012e60209081526040808420849055600160a060020a03909416835261012d81528383209183525290812055565b61012f54600090613cb890600190614650565b6000838152610130602052604081205461012f8054939450909284908110613cf35760e060020a634e487b7102600052603260045260246000fd5b906000526020600020015490508061012f8381548110613d265760e060020a634e487b7102600052603260045260246000fd5b6000918252602080832090910192909255828152610130909152604080822084905585825281205561012f805480613d715760e060020a634e487b7102600052603160045260246000fd5b6001900381819060005260206000200160009055905550505050565b6000613d9883611438565b600160a060020a03909316600090815261012d60209081526040808320868452825280832085905593825261012e9052919091209190915550565b828054613ddf906146aa565b90600052602060002090601f016020900481019282613e015760008555613e47565b82601f10613e1a57805160ff1916838001178555613e47565b82800160010185558215613e47579182015b82811115613e47578251825591602001919060010190613e2c565b50613e53929150613e57565b5090565b5b80821115613e535760008155600101613e58565b600067ffffffffffffffff80841115613e8757613e87614743565b604051601f8501601f19908116603f01168101908282118183101715613eaf57613eaf614743565b81604052809350858152868686011115613ec857600080fd5b858560208301376000602087830101525050509392505050565b8035801515811461091a57600080fd5b600082601f830112613f02578081fd5b61164783833560208501613e6c565b600060208284031215613f22578081fd5b81356116478161478f565b60008060408385031215613f3f578081fd5b8235613f4a8161478f565b91506020830135613f5a8161478f565b809150509250929050565b600080600060608486031215613f79578081fd5b8335613f848161478f565b92506020840135613f948161478f565b929592945050506040919091013590565b60008060008060808587031215613fba578081fd5b8435613fc58161478f565b93506020850135613fd58161478f565b925060408501359150606085013567ffffffffffffffff811115613ff7578182fd5b8501601f81018713614007578182fd5b61401687823560208401613e6c565b91505092959194509250565b60008060408385031215614034578182fd5b823561403f8161478f565b915061404d60208401613ee2565b90509250929050565b60008060408385031215614068578182fd5b82356140738161478f565b946020939093013593505050565b60008060008084860360a0811215614097578485fd5b85356140a28161478f565b945060208601359350604086013567ffffffffffffffff8111156140c4578384fd5b6140d088828901613ef2565b9350506040605f19820112156140e4578182fd5b509295919450926060019150565b600060208284031215614103578081fd5b61164782613ee2565b6000806040838503121561411e578182fd5b613f4a83613ee2565b600060208284031215614138578081fd5b5035919050565b60008060408385031215614151578081fd5b823591506020830135613f5a8161478f565b60008060408385031215614175578182fd5b50508035926020909101359150565b600060208284031215614195578081fd5b8135611647816147a4565b6000602082840312156141b1578081fd5b8151611647816147a4565b600080600080600060a086880312156141d3578283fd5b853567ffffffffffffffff808211156141ea578485fd5b6141f689838a01613ef2565b9650602088013591508082111561420b578485fd5b61421789838a01613ef2565b9550604088013591508082111561422c578485fd5b5061423988828901613ef2565b935050606086013561424a8161478f565b915061425860808701613ee2565b90509295509295909350565b6000815180845261427c816020860160208601614667565b601f01601f19169290920160200192915050565b600081516142a2818560208601614667565b9290920192915050565b82546000908190600281046001808316806142c857607f831692505b60208084108214156142eb5760e060020a634e487b710287526022600452602487fd5b8180156142ff57600181146143105761433c565b60ff1986168952848901965061433c565b60008b815260209020885b868110156143345781548b82015290850190830161431b565b505084890196505b50505050505061434c8185614290565b95945050505050565b60007f416363657373436f6e74726f6c3a206163636f756e74200000000000000000008252835161438d816017850160208801614667565b7f206973206d697373696e6720726f6c652000000000000000000000000000000060179184019182015283516143ca816028840160208801614667565b01602801949350505050565b6000600160a060020a038087168352808616602084015250836040830152608060608301526144086080830184614264565b9695505050505050565b6000602082526116476020830184614264565b60208082526032908201527f4552433732313a207472616e7366657220746f206e6f6e20455243373231526560408201527f63656976657220696d706c656d656e7465720000000000000000000000000000606082015260800190565b6020808252602e908201527f496e697469616c697a61626c653a20636f6e747261637420697320616c72656160408201527f647920696e697469616c697a6564000000000000000000000000000000000000606082015260800190565b6020808252818101527f4f776e61626c653a2063616c6c6572206973206e6f7420746865206f776e6572604082015260600190565b60208082526017908201527f5265737472696374656420746f20676f7665726e65722e000000000000000000604082015260600190565b60208082526031908201527f4552433732313a207472616e736665722063616c6c6572206973206e6f74206f60408201527f776e6572206e6f7220617070726f766564000000000000000000000000000000606082015260800190565b6020808252602b908201527f496e697469616c697a61626c653a20636f6e7472616374206973206e6f74206960408201527f6e697469616c697a696e67000000000000000000000000000000000000000000606082015260800190565b6000821982111561461857614618614711565b500190565b60008261462c5761462c61472a565b500490565b600081600019048311821515161561464b5761464b614711565b500290565b60008282101561466257614662614711565b500390565b60005b8381101561468257818101518382015260200161466a565b838111156117985750506000910152565b6000816146a2576146a2614711565b506000190190565b6002810460018216806146be57607f821691505b602082108114156119af5760e060020a634e487b7102600052602260045260246000fd5b60006000198214156146f6576146f6614711565b5060010190565b60008261470c5761470c61472a565b500690565b60e060020a634e487b7102600052601160045260246000fd5b60e060020a634e487b7102600052601260045260246000fd5b60e060020a634e487b7102600052604160045260246000fd5b81356147678161478f565b600160a060020a038116600160a060020a031983541617825550602082013560018201555050565b600160a060020a038116811461105257600080fd5b600160e060020a03198116811461105257600080fdfe7935bd0ae54bc31f548c14dba4d37c5c64b3f8ca900cb468fb8abd54d5894f5565d7a28e3265b37a6474929f336521b332c1681b933f6cb9f3376673440d862a9f2df0fed2c77648de5860a4cc508cd0818c85b8b8a1ab4ceeef8d981c8956a6a49807205ce4d355092ef5a8a18f56e8913cf4a201fbe287825b095693c21775a26469706673582212203683df8b5975dacad61d8911dca34518eecfa12efb56ad52684358cba1ced09864736f6c63430008030033",
  "immutableReferences": {},
  "source": "// SPDX-License-Identifier: MIT\n\npragma solidity ^0.8.0;\n\nimport \"@openzeppelin/contracts-upgradeable/token/ERC721/ERC721Upgradeable.sol\";\nimport \"@openzeppelin/contracts-upgradeable/token/ERC721/extensions/ERC721EnumerableUpgradeable.sol\";\nimport \"@openzeppelin/contracts-upgradeable/token/ERC721/extensions/ERC721BurnableUpgradeable.sol\";\nimport \"@openzeppelin/contracts-upgradeable/token/ERC721/extensions/ERC721PausableUpgradeable.sol\";\nimport \"@openzeppelin/contracts-upgradeable/access/AccessControlEnumerableUpgradeable.sol\";\nimport \"@openzeppelin/contracts-upgradeable/access/OwnableUpgradeable.sol\";\nimport \"@openzeppelin/contracts-upgradeable/utils/ContextUpgradeable.sol\";\nimport \"@openzeppelin/contracts-upgradeable/utils/CountersUpgradeable.sol\";\nimport \"@openzeppelin/contracts-upgradeable/proxy/utils/Initializable.sol\";\nimport \"./extensions/TokenGovernanceUpgradable.sol\";\n/**\n * @dev {ERC721} token, including:\n *\n *  - ability for holders to burn (destroy) their tokens\n *  - a minter role that allows for token minting (creation)\n *  - a pauser role that allows to stop all token transfers\n *  - token ID and URI autogeneration\n *\n * This contract uses {AccessControl} to lock permissioned functions using the\n * different roles - head to its documentation for details.\n *\n * The account that deploys the contract will be granted the minter and pauser\n * roles, as well as the default admin role, which will let it grant both minter\n * and pauser roles to other accounts.\n */\ncontract NFTMarketplaceUpgradableV2 is\n    Initializable,\n    AccessControlEnumerableUpgradeable,\n    OwnableUpgradeable,\n    ERC721EnumerableUpgradeable,\n    ERC721BurnableUpgradeable,\n    ERC721PausableUpgradeable,\n    ERC721TokenGovernanceUpgradable\n{\n    \n    using StringsUpgradeable for uint256;\n    \n    function initialize(\n        string memory name,\n        string memory symbol,\n        string memory baseTokenURI,\n        address rootAdmin,\n        bool transferable\n    ) public virtual initializer {\n        __NFTMarketplaceUpgradableV2_init(name, symbol, baseTokenURI, rootAdmin, transferable);\n    }\n\n    bytes32 public constant MINTER_ROLE = keccak256(\"MINTER_ROLE\");\n    bytes32 public constant PAUSER_ROLE = keccak256(\"PAUSER_ROLE\");\n    bytes32 public constant ADMIN_ROLE = keccak256(\"ADMIN_ROLE\");\n    bytes32 public constant GOVERNOR_ROLE = keccak256(\"GOVERNOR_ROLE\");\n    \n    string private _baseTokenURI;\n\n    bytes4 private constant _INTERFACE_ID_ERC2981 = 0x2a55205a;\n\n    /**\n     * @dev Grants `DEFAULT_ADMIN_ROLE`, `MINTER_ROLE` and `PAUSER_ROLE` to the\n     * account that deploys the contract.\n     *\n     * Token URIs will be autogenerated based on `baseURI` and their token IDs.\n     * See {ERC721-tokenURI}.\n     */\n    function __NFTMarketplaceUpgradableV2_init(\n        string memory name,\n        string memory symbol,\n        string memory baseTokenURI,\n        address rootAdmin,\n        bool transferable\n    ) internal initializer {\n        __Context_init_unchained();\n        __ERC165_init_unchained();\n        __AccessControl_init_unchained();\n        __AccessControlEnumerable_init_unchained();\n        __ERC721_init_unchained(name, symbol);\n        __ERC721Enumerable_init_unchained();\n        __Ownable_init_unchained();\n        __ERC721Burnable_init_unchained();\n        __Pausable_init_unchained();\n        __ERC721Pausable_init_unchained();\n        __NFTMarketplaceUpgradableV2_init_unchained(name, symbol, baseTokenURI, rootAdmin);\n        __TokenGovernance_init_unchained(transferable);\n    }\n\n    function __NFTMarketplaceUpgradableV2_init_unchained(\n        string memory name,\n        string memory symbol,\n        string memory baseTokenURI,\n        address rootAdmin\n    ) internal initializer {\n        _baseTokenURI = baseTokenURI;\n        \n        _setupRole(DEFAULT_ADMIN_ROLE, _msgSender());\n        _setupRole(ADMIN_ROLE, rootAdmin);\n        _setRoleAdmin(MINTER_ROLE, ADMIN_ROLE);\n        _setRoleAdmin(PAUSER_ROLE, ADMIN_ROLE);\n    }\n    \n    mapping(uint256 => string) private _tokenURIs;\n    \n\n    struct Royalties{\n        address account;\n        uint percentage;\n    }\n\n    // storing the royalty details of a token\n    mapping(uint256 => Royalties) private _royalties;\n    \n    event RoyaltyAdded(uint256 indexed tokenId, address indexed account, uint256 percentage);\n\n    function _baseURI() internal view virtual override returns (string memory) {\n        return _baseTokenURI;\n    }\n    \n    /**\n     * @dev See {IERC721Metadata-tokenURI}.\n     */\n    function tokenURI(uint256 tokenId) public view override returns (string memory) {\n        require(_exists(tokenId), \"ERC721Metadata: URI query for nonexistent token\");\n\n        string memory _tokenURI = _tokenURIs[tokenId];\n\n        // If there is no base URI, return the token URI.\n        if (bytes(_baseTokenURI).length == 0) {\n            return _tokenURI;\n        }\n        // If both are set, concatenate the baseURI and tokenURI (via abi.encodePacked).\n        if (bytes(_baseTokenURI).length > 0) {\n            \n            if(bytes(_tokenURI).length == 0) {\n                // If there is a baseURI but no tokenURI, concatenate the tokenID to the baseURI.\n                return string(abi.encodePacked(_baseTokenURI, tokenId.toString()));\n            }\n            \n            return string(abi.encodePacked(_baseTokenURI, _tokenURI));\n        }\n    }\n    \n    /**\n     * @dev Sets `_tokenURI` as the tokenURI of `tokenId`.\n     *\n     * Requirements:\n     *\n     * - `tokenId` must exist.\n     */\n    function _setTokenURI(uint256 tokenId, string memory _tokenURI) internal virtual {\n        require(_exists(tokenId), \"ERC721Metadata: URI set of nonexistent token\");\n        \n        bytes memory tempBytes = bytes(_tokenURI);\n        if(tempBytes.length > 0) _tokenURIs[tokenId] = _tokenURI;\n    }\n\n     /**\n    * @dev overriding the inherited {transferOwnership} function to reflect the admin changes into the {DEFAULT_ADMIN_ROLE}\n    */\n    function transferOwnership(address newOwner) public override onlyOwner {\n        super.transferOwnership(newOwner);\n        _setupRole(DEFAULT_ADMIN_ROLE, newOwner);\n        renounceRole(DEFAULT_ADMIN_ROLE, _msgSender());\n    }\n    \n    /**\n    * @dev overriding the inherited {grantRole} function to have a single root admin\n    */\n   \n    function grantRole(bytes32 role, address account) public override {\n        if(role == ADMIN_ROLE)\n            require(getRoleMemberCount(ADMIN_ROLE) == 0, \"exactly one address can have admin role\");\n            \n        super.grantRole(role, account);\n    }\n\n    /**\n    * @dev modifier to check admin rights.\n    * contract owner and root admin have admin rights\n    */\n    modifier onlyAdmin() {\n        require(hasRole(ADMIN_ROLE, _msgSender()) || owner() == _msgSender(), \"Restricted to admin.\");\n        _;\n    }\n    \n    /**\n    * @dev modifier to check mint rights.\n    * contract owner, root admin and minter's have mint rights\n    */\n    modifier onlyMinter() {\n        require(\n            hasRole(ADMIN_ROLE, _msgSender()) || \n            hasRole(MINTER_ROLE, _msgSender()) || \n            owner() == _msgSender(), \"Restricted to minter.\"\n            );\n        _;\n    }\n\n       /**\n    * @dev modifier to check pause rights.\n    * contract owner, root admin and pausers's have pause rights\n    */\n    modifier onlyPauser() {\n        require(\n            hasRole(ADMIN_ROLE, _msgSender()) || \n            hasRole(PAUSER_ROLE, _msgSender()) || \n            owner() == _msgSender(), \"Restricted to pauser.\"\n            );\n        _;\n    }\n    \n       /**\n    * @dev modifier to check governer rights.\n    * contract owner, root admin and governer's have governer rights\n    */\n      modifier onlyGoverner() {\n        require(\n            hasRole(ADMIN_ROLE, _msgSender()) || \n            hasRole(GOVERNOR_ROLE, _msgSender()) || \n            owner() == _msgSender(), \"Restricted to governer.\"\n            );\n        _;\n    }\n\n    /**\n    * @dev This function is to change the root admin \n    * exaclty one root admin is allowed per contract\n    * only contract owner have the authority to add, remove or change\n    */\n    function changeRootAdmin(address newAdmin) public {\n        address oldAdmin = getRoleMember(ADMIN_ROLE, 0);\n        revokeRole(ADMIN_ROLE, oldAdmin);\n        grantRole(ADMIN_ROLE, newAdmin);\n    }\n    \n    /**\n    * @dev This function is to add a minter or pauser into the contract, \n    * only root admin and contract owner have the authority to add them\n    * but only the root admin can revoke them using {revokeRole}\n    * minter or pauser can also self renounce the access using {renounceRole}\n    */\n    function addMinterOrPauser(address account, bytes32 role) public onlyAdmin{\n        if(role == MINTER_ROLE || role == PAUSER_ROLE)\n            _setupRole(role, account);\n    }\n    \n  \n    // As part of the lazy minting this mint function will be called by the admin and will transfer the NFT to the buyer\n    function mint(address receiver,uint collectibleId, string memory IPFSHash, Royalties calldata royalties) public onlyMinter {\n        _mint(receiver, collectibleId);\n        _setTokenURI(collectibleId, IPFSHash);\n        _setRoyalties(collectibleId, royalties);\n    }\n    \n    function _setRoyalties(uint256 collectibleId, Royalties calldata royalties) internal virtual {\n        \n        require(royalties.percentage <= 2000, \"exceeds royalty collective max value of twenty percent\");\n        // require(royalties.percentage >= 500, \"subceed royalty collective min value of five percent\");\n        \n        if(royalties.account != address(0)){\n            _royalties[collectibleId] = royalties;\n            emit RoyaltyAdded(collectibleId, royalties.account, royalties.percentage);\n        }\n    }\n    \n     function royaltyInfo(\n        uint256 _tokenId,\n        uint256 _salePrice\n    ) external view returns (\n        address receiver,\n        uint256 royaltyAmount\n    ){\n        require(_exists(_tokenId), \"query for non nonexistent token\");\n        \n        royaltyAmount = (_salePrice * _royalties[_tokenId].percentage) / 10000;\n        receiver = _royalties[_tokenId].account;\n    }\n\n    /**\n    * @dev This funtion is to give authority to root admin to transfer token to the\n    * buyer on behalf of the token owner\n    *\n    * The token owner can approve and renounce the access via this function\n    */\n    function setApprovalForOwner(bool approval) public {\n        address defaultAdmin = getRoleMember(ADMIN_ROLE, 0);\n        setApprovalForAll(defaultAdmin, approval);\n    }\n    \n    /**\n    * @dev This funtion is to give authority to minter to transfer token to the\n    * buyer on behalf of the token owner\n    *\n    * The token owner can approve and renounce the access via this function\n    */\n    function setApprovalForMinter(bool approval, address minterAccount) public {\n        require(hasRole(MINTER_ROLE, minterAccount), \"not a minter address\");\n        setApprovalForAll(minterAccount, approval);\n    }\n\n    /**\n    * @dev This funtion is to check weather the contract admin have approval from a token owner\n    *\n    */\n    function isApprovedForOwner(address account) public view returns (bool approval){\n        address defaultAdmin = getRoleMember(ADMIN_ROLE, 0);\n        return isApprovedForAll(account, defaultAdmin);\n    }\n\n    /**\n     * @dev Pauses all token transfers.\n     *\n     * See {ERC721Pausable} and {Pausable-_pause}.\n     *\n     * Requirements:\n     *\n     * - the caller must have the `PAUSER_ROLE`.\n     */\n    function pause() public virtual onlyPauser{\n        _pause();\n    }\n\n    /**\n     * @dev Unpauses all token transfers.\n     *\n     * See {ERC721Pausable} and {Pausable-_unpause}.\n     *\n     * Requirements:\n     *\n     * - the caller must have the `PAUSER_ROLE`.\n     */\n    function unpause() public virtual onlyPauser{\n        _unpause();\n    }\n\n\n    function isAddressWhiteListed(address _address) public returns(bool){\n        return _isAddressWhiteListed(_address);  \n    }\n\n    function isAddressBlackListed(address _address)public returns(bool) {\n        return _isAddressBlackListed(_address);\n        \n    }\n\n    function isTokenBlackListed(uint _tokenid) public returns(bool) {\n        return _isTokenBlackListed(_tokenid);\n    }\n\n    function isTokenWhiteListed(uint _tokenid) public returns(bool) {\n        return _isTokenWhiteListed(_tokenid);\n    }\n\n    function isTransferable()public returns(bool){\n        return _isTransferable();\n    }\n\n    function whiteListAddress(address _address) public onlyGoverner {\n        _whiteListAddress(_address);\n    }\n    \n    function blackListAddress(address _address) public onlyGoverner {\n        _blackListAddress(_address);\n    }\n\n    function whiteListToken(uint _tokenid)public onlyGoverner {\n        _whiteListToken(_tokenid);\n    }\n\n    function blackListToken(uint _tokenid)public onlyGoverner {\n        _blackListToken(_tokenid);\n    }\n\n    function removeWhiteListAddress(address _address) public onlyGoverner {\n        _removeWhiteListAddress(_address);\n    }\n\n    function removeBlackListAddress(address _address) public onlyGoverner {\n        _removeBlackListAddress(_address);\n    }\n\n    function removeWhiteListToken(uint _tokenid)public onlyGoverner {\n        _removeWhiteListToken(_tokenid);\n    }\n\n    function removeBlackListToken(uint _tokenid)public onlyGoverner {\n        _removeBlackListToken(_tokenid);\n    }\n\n    function setTransferable(bool _transferable)public onlyGoverner {\n        _setTransferable(_transferable);\n    }\n\n\n    function _beforeTokenTransfer(\n        address from,\n        address to,\n        uint256 tokenId\n    ) internal virtual override(ERC721Upgradeable, ERC721EnumerableUpgradeable, ERC721PausableUpgradeable, ERC721TokenGovernanceUpgradable) {\n        super._beforeTokenTransfer(from, to, tokenId);\n    }\n\n    /**\n     * @dev See {IERC165-supportsInterface}.\n     */\n    function supportsInterface(bytes4 interfaceId)\n        public\n        view\n        virtual\n        override(AccessControlEnumerableUpgradeable, ERC721Upgradeable, ERC721EnumerableUpgradeable)\n        returns (bool)\n    {\n        // add support to EIP-2981: NFT Royalty Standard\n        if(interfaceId == _INTERFACE_ID_ERC2981){\n            return true;\n        }\n        return super.supportsInterface(interfaceId);\n    }\n    uint256[48] private __gap;\n}\n",
  "sourcePath": "/home/karthika/ASHLY_PROJECT/contracts/NFTMarketplaceERC721UpgradableV2.sol",
  "compiler": {
    "name": "solc",
    "version": "0.8.3+commit.8d00100c.Emscripten.clang"
  },
  "schemaVersion": "3.4.5",
  "updatedAt": "2022-05-04T05:50:14.153Z",
  "networkType": "ethereum",
  "devdoc": {
    "details": "{ERC721} token, including:  - ability for holders to burn (destroy) their tokens  - a minter role that allows for token minting (creation)  - a pauser role that allows to stop all token transfers  - token ID and URI autogeneration This contract uses {AccessControl} to lock permissioned functions using the different roles - head to its documentation for details. The account that deploys the contract will be granted the minter and pauser roles, as well as the default admin role, which will let it grant both minter and pauser roles to other accounts.",
    "kind": "dev",
    "methods": {
      "addMinterOrPauser(address,bytes32)": {
        "details": "This function is to add a minter or pauser into the contract,  only root admin and contract owner have the authority to add them but only the root admin can revoke them using {revokeRole} minter or pauser can also self renounce the access using {renounceRole}"
      },
      "approve(address,uint256)": {
        "details": "See {IERC721-approve}."
      },
      "balanceOf(address)": {
        "details": "See {IERC721-balanceOf}."
      },
      "burn(uint256)": {
        "details": "Burns `tokenId`. See {ERC721-_burn}. Requirements: - The caller must own `tokenId` or be an approved operator."
      },
      "changeRootAdmin(address)": {
        "details": "This function is to change the root admin  exaclty one root admin is allowed per contract only contract owner have the authority to add, remove or change"
      },
      "getApproved(uint256)": {
        "details": "See {IERC721-getApproved}."
      },
      "getRoleAdmin(bytes32)": {
        "details": "Returns the admin role that controls `role`. See {grantRole} and {revokeRole}. To change a role's admin, use {_setRoleAdmin}."
      },
      "getRoleMember(bytes32,uint256)": {
        "details": "Returns one of the accounts that have `role`. `index` must be a value between 0 and {getRoleMemberCount}, non-inclusive. Role bearers are not sorted in any particular way, and their ordering may change at any point. WARNING: When using {getRoleMember} and {getRoleMemberCount}, make sure you perform all queries on the same block. See the following https://forum.openzeppelin.com/t/iterating-over-elements-on-enumerableset-in-openzeppelin-contracts/2296[forum post] for more information."
      },
      "getRoleMemberCount(bytes32)": {
        "details": "Returns the number of accounts that have `role`. Can be used together with {getRoleMember} to enumerate all bearers of a role."
      },
      "grantRole(bytes32,address)": {
        "details": "overriding the inherited {grantRole} function to have a single root admin"
      },
      "hasRole(bytes32,address)": {
        "details": "Returns `true` if `account` has been granted `role`."
      },
      "isApprovedForAll(address,address)": {
        "details": "See {IERC721-isApprovedForAll}."
      },
      "isApprovedForOwner(address)": {
        "details": "This funtion is to check weather the contract admin have approval from a token owner"
      },
      "name()": {
        "details": "See {IERC721Metadata-name}."
      },
      "owner()": {
        "details": "Returns the address of the current owner."
      },
      "ownerOf(uint256)": {
        "details": "See {IERC721-ownerOf}."
      },
      "pause()": {
        "details": "Pauses all token transfers. See {ERC721Pausable} and {Pausable-_pause}. Requirements: - the caller must have the `PAUSER_ROLE`."
      },
      "paused()": {
        "details": "Returns true if the contract is paused, and false otherwise."
      },
      "renounceOwnership()": {
        "details": "Leaves the contract without owner. It will not be possible to call `onlyOwner` functions anymore. Can only be called by the current owner. NOTE: Renouncing ownership will leave the contract without an owner, thereby removing any functionality that is only available to the owner."
      },
      "renounceRole(bytes32,address)": {
        "details": "Revokes `role` from the calling account. Roles are often managed via {grantRole} and {revokeRole}: this function's purpose is to provide a mechanism for accounts to lose their privileges if they are compromised (such as when a trusted device is misplaced). If the calling account had been revoked `role`, emits a {RoleRevoked} event. Requirements: - the caller must be `account`."
      },
      "revokeRole(bytes32,address)": {
        "details": "Revokes `role` from `account`. If `account` had been granted `role`, emits a {RoleRevoked} event. Requirements: - the caller must have ``role``'s admin role."
      },
      "safeTransferFrom(address,address,uint256)": {
        "details": "See {IERC721-safeTransferFrom}."
      },
      "safeTransferFrom(address,address,uint256,bytes)": {
        "details": "See {IERC721-safeTransferFrom}."
      },
      "setApprovalForAll(address,bool)": {
        "details": "See {IERC721-setApprovalForAll}."
      },
      "setApprovalForMinter(bool,address)": {
        "details": "This funtion is to give authority to minter to transfer token to the buyer on behalf of the token owner The token owner can approve and renounce the access via this function"
      },
      "setApprovalForOwner(bool)": {
        "details": "This funtion is to give authority to root admin to transfer token to the buyer on behalf of the token owner The token owner can approve and renounce the access via this function"
      },
      "supportsInterface(bytes4)": {
        "details": "See {IERC165-supportsInterface}."
      },
      "symbol()": {
        "details": "See {IERC721Metadata-symbol}."
      },
      "tokenByIndex(uint256)": {
        "details": "See {IERC721Enumerable-tokenByIndex}."
      },
      "tokenOfOwnerByIndex(address,uint256)": {
        "details": "See {IERC721Enumerable-tokenOfOwnerByIndex}."
      },
      "tokenURI(uint256)": {
        "details": "See {IERC721Metadata-tokenURI}."
      },
      "totalSupply()": {
        "details": "See {IERC721Enumerable-totalSupply}."
      },
      "transferFrom(address,address,uint256)": {
        "details": "See {IERC721-transferFrom}."
      },
      "transferOwnership(address)": {
        "details": "overriding the inherited {transferOwnership} function to reflect the admin changes into the {DEFAULT_ADMIN_ROLE}"
      },
      "unpause()": {
        "details": "Unpauses all token transfers. See {ERC721Pausable} and {Pausable-_unpause}. Requirements: - the caller must have the `PAUSER_ROLE`."
      }
    },
    "version": 1
  },
  "userdoc": {
    "kind": "user",
    "methods": {},
    "version": 1
  }
}